{
  "_format": "hh-sol-artifact-1",
  "contractName": "ERC1155Item",
  "sourceName": "contracts/ERC1155Item.sol",
  "abi": [
    {
      "inputs": [
        {
          "internalType": "address",
          "name": "initialOwner",
          "type": "address"
        },
        {
          "internalType": "string",
          "name": "_tokenName",
          "type": "string"
        },
        {
          "internalType": "string",
          "name": "_tokenSymbol",
          "type": "string"
        },
        {
          "internalType": "uint256",
          "name": "mintAmount",
          "type": "uint256"
        },
        {
          "internalType": "string",
          "name": "uri",
          "type": "string"
        },
        {
          "internalType": "bytes",
          "name": "data",
          "type": "bytes"
        }
      ],
      "stateMutability": "nonpayable",
      "type": "constructor"
    },
    {
      "inputs": [
        {
          "internalType": "address",
          "name": "sender",
          "type": "address"
        },
        {
          "internalType": "uint256",
          "name": "balance",
          "type": "uint256"
        },
        {
          "internalType": "uint256",
          "name": "needed",
          "type": "uint256"
        },
        {
          "internalType": "uint256",
          "name": "tokenId",
          "type": "uint256"
        }
      ],
      "name": "ERC1155InsufficientBalance",
      "type": "error"
    },
    {
      "inputs": [
        {
          "internalType": "address",
          "name": "approver",
          "type": "address"
        }
      ],
      "name": "ERC1155InvalidApprover",
      "type": "error"
    },
    {
      "inputs": [
        {
          "internalType": "uint256",
          "name": "idsLength",
          "type": "uint256"
        },
        {
          "internalType": "uint256",
          "name": "valuesLength",
          "type": "uint256"
        }
      ],
      "name": "ERC1155InvalidArrayLength",
      "type": "error"
    },
    {
      "inputs": [
        {
          "internalType": "address",
          "name": "operator",
          "type": "address"
        }
      ],
      "name": "ERC1155InvalidOperator",
      "type": "error"
    },
    {
      "inputs": [
        {
          "internalType": "address",
          "name": "receiver",
          "type": "address"
        }
      ],
      "name": "ERC1155InvalidReceiver",
      "type": "error"
    },
    {
      "inputs": [
        {
          "internalType": "address",
          "name": "sender",
          "type": "address"
        }
      ],
      "name": "ERC1155InvalidSender",
      "type": "error"
    },
    {
      "inputs": [
        {
          "internalType": "address",
          "name": "operator",
          "type": "address"
        },
        {
          "internalType": "address",
          "name": "owner",
          "type": "address"
        }
      ],
      "name": "ERC1155MissingApprovalForAll",
      "type": "error"
    },
    {
      "anonymous": false,
      "inputs": [
        {
          "indexed": true,
          "internalType": "address",
          "name": "account",
          "type": "address"
        },
        {
          "indexed": true,
          "internalType": "address",
          "name": "operator",
          "type": "address"
        },
        {
          "indexed": false,
          "internalType": "bool",
          "name": "approved",
          "type": "bool"
        }
      ],
      "name": "ApprovalForAll",
      "type": "event"
    },
    {
      "anonymous": false,
      "inputs": [
        {
          "indexed": true,
          "internalType": "address",
          "name": "operator",
          "type": "address"
        },
        {
          "indexed": true,
          "internalType": "address",
          "name": "from",
          "type": "address"
        },
        {
          "indexed": true,
          "internalType": "address",
          "name": "to",
          "type": "address"
        },
        {
          "indexed": false,
          "internalType": "uint256[]",
          "name": "ids",
          "type": "uint256[]"
        },
        {
          "indexed": false,
          "internalType": "uint256[]",
          "name": "values",
          "type": "uint256[]"
        }
      ],
      "name": "TransferBatch",
      "type": "event"
    },
    {
      "anonymous": false,
      "inputs": [
        {
          "indexed": true,
          "internalType": "address",
          "name": "operator",
          "type": "address"
        },
        {
          "indexed": true,
          "internalType": "address",
          "name": "from",
          "type": "address"
        },
        {
          "indexed": true,
          "internalType": "address",
          "name": "to",
          "type": "address"
        },
        {
          "indexed": false,
          "internalType": "uint256",
          "name": "id",
          "type": "uint256"
        },
        {
          "indexed": false,
          "internalType": "uint256",
          "name": "value",
          "type": "uint256"
        }
      ],
      "name": "TransferSingle",
      "type": "event"
    },
    {
      "anonymous": false,
      "inputs": [
        {
          "indexed": false,
          "internalType": "string",
          "name": "value",
          "type": "string"
        },
        {
          "indexed": true,
          "internalType": "uint256",
          "name": "id",
          "type": "uint256"
        }
      ],
      "name": "URI",
      "type": "event"
    },
    {
      "inputs": [
        {
          "internalType": "address",
          "name": "account",
          "type": "address"
        },
        {
          "internalType": "uint256",
          "name": "id",
          "type": "uint256"
        }
      ],
      "name": "balanceOf",
      "outputs": [
        {
          "internalType": "uint256",
          "name": "",
          "type": "uint256"
        }
      ],
      "stateMutability": "view",
      "type": "function"
    },
    {
      "inputs": [
        {
          "internalType": "address[]",
          "name": "accounts",
          "type": "address[]"
        },
        {
          "internalType": "uint256[]",
          "name": "ids",
          "type": "uint256[]"
        }
      ],
      "name": "balanceOfBatch",
      "outputs": [
        {
          "internalType": "uint256[]",
          "name": "",
          "type": "uint256[]"
        }
      ],
      "stateMutability": "view",
      "type": "function"
    },
    {
      "inputs": [
        {
          "internalType": "address",
          "name": "account",
          "type": "address"
        },
        {
          "internalType": "address",
          "name": "operator",
          "type": "address"
        }
      ],
      "name": "isApprovedForAll",
      "outputs": [
        {
          "internalType": "bool",
          "name": "",
          "type": "bool"
        }
      ],
      "stateMutability": "view",
      "type": "function"
    },
    {
      "inputs": [
        {
          "internalType": "address",
          "name": "account",
          "type": "address"
        },
        {
          "internalType": "uint256",
          "name": "id",
          "type": "uint256"
        },
        {
          "internalType": "uint256",
          "name": "amount",
          "type": "uint256"
        },
        {
          "internalType": "bytes",
          "name": "data",
          "type": "bytes"
        }
      ],
      "name": "mint",
      "outputs": [],
      "stateMutability": "nonpayable",
      "type": "function"
    },
    {
      "inputs": [
        {
          "internalType": "address",
          "name": "to",
          "type": "address"
        },
        {
          "internalType": "uint256[]",
          "name": "ids",
          "type": "uint256[]"
        },
        {
          "internalType": "uint256[]",
          "name": "amounts",
          "type": "uint256[]"
        },
        {
          "internalType": "bytes",
          "name": "data",
          "type": "bytes"
        }
      ],
      "name": "mintBatch",
      "outputs": [],
      "stateMutability": "nonpayable",
      "type": "function"
    },
    {
      "inputs": [
        {
          "internalType": "address",
          "name": "from",
          "type": "address"
        },
        {
          "internalType": "address",
          "name": "to",
          "type": "address"
        },
        {
          "internalType": "uint256[]",
          "name": "ids",
          "type": "uint256[]"
        },
        {
          "internalType": "uint256[]",
          "name": "values",
          "type": "uint256[]"
        },
        {
          "internalType": "bytes",
          "name": "data",
          "type": "bytes"
        }
      ],
      "name": "safeBatchTransferFrom",
      "outputs": [],
      "stateMutability": "nonpayable",
      "type": "function"
    },
    {
      "inputs": [
        {
          "internalType": "address",
          "name": "from",
          "type": "address"
        },
        {
          "internalType": "address",
          "name": "to",
          "type": "address"
        },
        {
          "internalType": "uint256",
          "name": "id",
          "type": "uint256"
        },
        {
          "internalType": "uint256",
          "name": "value",
          "type": "uint256"
        },
        {
          "internalType": "bytes",
          "name": "data",
          "type": "bytes"
        }
      ],
      "name": "safeTransferFrom",
      "outputs": [],
      "stateMutability": "nonpayable",
      "type": "function"
    },
    {
      "inputs": [
        {
          "internalType": "address",
          "name": "operator",
          "type": "address"
        },
        {
          "internalType": "bool",
          "name": "approved",
          "type": "bool"
        }
      ],
      "name": "setApprovalForAll",
      "outputs": [],
      "stateMutability": "nonpayable",
      "type": "function"
    },
    {
      "inputs": [
        {
          "internalType": "string",
          "name": "newuri",
          "type": "string"
        }
      ],
      "name": "setURI",
      "outputs": [],
      "stateMutability": "nonpayable",
      "type": "function"
    },
    {
      "inputs": [
        {
          "internalType": "bytes4",
          "name": "interfaceId",
          "type": "bytes4"
        }
      ],
      "name": "supportsInterface",
      "outputs": [
        {
          "internalType": "bool",
          "name": "",
          "type": "bool"
        }
      ],
      "stateMutability": "view",
      "type": "function"
    },
    {
      "inputs": [],
      "name": "tokenName",
      "outputs": [
        {
          "internalType": "string",
          "name": "",
          "type": "string"
        }
      ],
      "stateMutability": "view",
      "type": "function"
    },
    {
      "inputs": [],
      "name": "tokenSymbol",
      "outputs": [
        {
          "internalType": "string",
          "name": "",
          "type": "string"
        }
      ],
      "stateMutability": "view",
      "type": "function"
    },
    {
      "inputs": [
        {
          "internalType": "uint256",
          "name": "",
          "type": "uint256"
        }
      ],
      "name": "uri",
      "outputs": [
        {
          "internalType": "string",
          "name": "",
          "type": "string"
        }
      ],
      "stateMutability": "view",
      "type": "function"
    }
  ],
  "bytecode": "0x608060405234801561001057600080fd5b50604051611f05380380611f0583398101604081905261002f91610661565b816100398161006c565b50610047866001858461007c565b600361005386826107c3565b50600461006085826107c3565b50505050505050610a12565b600261007882826107c3565b5050565b6100888484848461008e565b50505050565b6001600160a01b0384166100bd57604051632bfa23e760e11b8152600060048201526024015b60405180910390fd5b604080516001808252602082018690528183019081526060820185905260808201909252906100f06000878484876100f8565b505050505050565b61010485858585610152565b6001600160a01b0384161561014b578251339060010361013d5760208481015190840151610136838989858589610366565b50506100f0565b6100f0818787878787610493565b5050505050565b80518251146101815781518151604051635b05999160e01b8152600481019290925260248201526044016100b4565b3360005b8351811015610287576020818102858101820151908501909101516001600160a01b03881615610238576000828152602081815260408083206001600160a01b038c16845290915290205481811015610211576040516303dee4c560e01b81526001600160a01b038a1660048201526024810182905260448101839052606481018490526084016100b4565b6000838152602081815260408083206001600160a01b038d16845290915290209082900390555b6001600160a01b0387161561027d576000828152602081815260408083206001600160a01b038b16845290915281208054839290610277908490610881565b90915550505b5050600101610185565b5082516001036103085760208301516000906020840151909150856001600160a01b0316876001600160a01b0316846001600160a01b03167fc3d58168c5ae7397731d063d5bbf3d657854427343f4c083240f7aacaa2d0f6285856040516102f9929190918252602082015260400190565b60405180910390a4505061014b565b836001600160a01b0316856001600160a01b0316826001600160a01b03167f4a39dc06d4c0dbc64b70af90fd698a233a518aa5d07e595d983b8c0526c8f7fb86866040516103579291906108e4565b60405180910390a45050505050565b6001600160a01b0384163b156100f05760405163f23a6e6160e01b81526001600160a01b0385169063f23a6e61906103aa908990899088908890889060040161093e565b6020604051808303816000875af19250505080156103e5575060408051601f3d908101601f191682019092526103e291810190610983565b60015b61044e573d808015610413576040519150601f19603f3d011682016040523d82523d6000602084013e610418565b606091505b50805160000361044657604051632bfa23e760e11b81526001600160a01b03861660048201526024016100b4565b805181602001fd5b6001600160e01b0319811663f23a6e6160e01b1461048a57604051632bfa23e760e11b81526001600160a01b03861660048201526024016100b4565b50505050505050565b6001600160a01b0384163b156100f05760405163bc197c8160e01b81526001600160a01b0385169063bc197c81906104d790899089908890889088906004016109b4565b6020604051808303816000875af1925050508015610512575060408051601f3d908101601f1916820190925261050f91810190610983565b60015b610540573d808015610413576040519150601f19603f3d011682016040523d82523d6000602084013e610418565b6001600160e01b0319811663bc197c8160e01b1461048a57604051632bfa23e760e11b81526001600160a01b03861660048201526024016100b4565b80516001600160a01b038116811461059357600080fd5b919050565b634e487b7160e01b600052604160045260246000fd5b60005b838110156105c95781810151838201526020016105b1565b50506000910152565b600082601f8301126105e357600080fd5b8151602083016000806001600160401b0384111561060357610603610598565b50604051601f19601f85018116603f011681018181106001600160401b038211171561063157610631610598565b60405283815290508082840187101561064957600080fd5b6106578460208301856105ae565b9695505050505050565b60008060008060008060c0878903121561067a57600080fd5b6106838761057c565b60208801519096506001600160401b0381111561069f57600080fd5b6106ab89828a016105d2565b604089015190965090506001600160401b038111156106c957600080fd5b6106d589828a016105d2565b606089015160808a0151919650945090506001600160401b038111156106fa57600080fd5b61070689828a016105d2565b60a089015190935090506001600160401b0381111561072457600080fd5b61073089828a016105d2565b9150509295509295509295565b600181811c9082168061075157607f821691505b60208210810361077157634e487b7160e01b600052602260045260246000fd5b50919050565b601f8211156107be57806000526020600020601f840160051c8101602085101561079e5750805b601f840160051c820191505b8181101561014b57600081556001016107aa565b505050565b81516001600160401b038111156107dc576107dc610598565b6107f0816107ea845461073d565b84610777565b6020601f821160018114610824576000831561080c5750848201515b600019600385901b1c1916600184901b17845561014b565b600084815260208120601f198516915b828110156108545787850151825560209485019460019092019101610834565b50848210156108725786840151600019600387901b60f8161c191681555b50505050600190811b01905550565b808201808211156108a257634e487b7160e01b600052601160045260246000fd5b92915050565b600081518084526020840193506020830160005b828110156108da5781518652602095860195909101906001016108bc565b5093949350505050565b6040815260006108f760408301856108a8565b828103602084015261090981856108a8565b95945050505050565b6000815180845261092a8160208601602086016105ae565b601f01601f19169290920160200192915050565b6001600160a01b03868116825285166020820152604081018490526060810183905260a06080820181905260009061097890830184610912565b979650505050505050565b60006020828403121561099557600080fd5b81516001600160e01b0319811681146109ad57600080fd5b9392505050565b6001600160a01b0386811682528516602082015260a0604082018190526000906109e0908301866108a8565b82810360608401526109f281866108a8565b90508281036080840152610a068185610912565b98975050505050505050565b6114e480610a216000396000f3fe608060405234801561001057600080fd5b50600436106100ce5760003560e01c80634e1273f41161008c5780637b61c320116100665780637b61c320146101b2578063a22cb465146101ba578063e985e9c5146101cd578063f242432a146101e057600080fd5b80634e1273f4146101775780636c02a93114610197578063731133e91461019f57600080fd5b8062fdd58e146100d357806301ffc9a7146100f957806302fe53051461011c5780630e89341c146101315780631f7fdffa146101515780632eb2c2d614610164575b600080fd5b6100e66100e1366004610c54565b6101f3565b6040519081526020015b60405180910390f35b61010c610107366004610c94565b61021b565b60405190151581526020016100f0565b61012f61012a366004610d59565b61026b565b005b61014461013f366004610da9565b610277565b6040516100f09190610e08565b61012f61015f366004610ecb565b61030b565b61012f610172366004610f6d565b61031d565b61018a610185366004611020565b610389565b6040516100f09190611123565b610144610455565b61012f6101ad366004611136565b6104e3565b6101446104ef565b61012f6101c836600461117e565b6104fc565b61010c6101db3660046111ba565b61050b565b61012f6101ee3660046111ed565b610539565b6000818152602081815260408083206001600160a01b03861684529091529020545b92915050565b60006001600160e01b03198216636cdb3d1360e11b148061024c57506001600160e01b031982166303a24d0760e21b145b8061021557506301ffc9a760e01b6001600160e01b0319831614610215565b61027481610598565b50565b60606002805461028690611245565b80601f01602080910402602001604051908101604052809291908181526020018280546102b290611245565b80156102ff5780601f106102d4576101008083540402835291602001916102ff565b820191906000526020600020905b8154815290600101906020018083116102e257829003601f168201915b50505050509050919050565b610317848484846105a4565b50505050565b336001600160a01b038616811480159061033e575061033c868261050b565b155b156103745760405163711bec9160e11b81526001600160a01b038083166004830152871660248201526044015b60405180910390fd5b61038186868686866105dc565b505050505050565b606081518351146103ba5781518351604051635b05999160e01b81526004810192909252602482015260440161036b565b600083516001600160401b038111156103d5576103d5610cb8565b6040519080825280602002602001820160405280156103fe578160200160208202803683370190505b50905060005b845181101561044d57602080820286010151610428906020808402870101516101f3565b82828151811061043a5761043a61127f565b6020908102919091010152600101610404565b509392505050565b6003805461046290611245565b80601f016020809104026020016040519081016040528092919081815260200182805461048e90611245565b80156104db5780601f106104b0576101008083540402835291602001916104db565b820191906000526020600020905b8154815290600101906020018083116104be57829003601f168201915b505050505081565b61031784848484610643565b6004805461046290611245565b6105073383836106a0565b5050565b6001600160a01b03918216600090815260016020908152604080832093909416825291909152205460ff1690565b336001600160a01b038616811480159061055a5750610558868261050b565b155b1561058b5760405163711bec9160e11b81526001600160a01b0380831660048301528716602482015260440161036b565b6103818686868686610736565b600261050782826112e1565b6001600160a01b0384166105ce57604051632bfa23e760e11b81526000600482015260240161036b565b6103176000858585856107c4565b6001600160a01b03841661060657604051632bfa23e760e11b81526000600482015260240161036b565b6001600160a01b03851661062f57604051626a0d4560e21b81526000600482015260240161036b565b61063c85858585856107c4565b5050505050565b6001600160a01b03841661066d57604051632bfa23e760e11b81526000600482015260240161036b565b604080516001808252602082018690528183019081526060820185905260808201909252906103816000878484876107c4565b6001600160a01b0382166106c95760405162ced3e160e81b81526000600482015260240161036b565b6001600160a01b03838116600081815260016020908152604080832094871680845294825291829020805460ff191686151590811790915591519182527f17307eab39ab6107e8899845ad3d59bd9653f200f220920489ca2b5937696c31910160405180910390a3505050565b6001600160a01b03841661076057604051632bfa23e760e11b81526000600482015260240161036b565b6001600160a01b03851661078957604051626a0d4560e21b81526000600482015260240161036b565b604080516001808252602082018690528183019081526060820185905260808201909252906107bb87878484876107c4565b50505050505050565b6107d085858585610817565b6001600160a01b0384161561063c57825133906001036108095760208481015190840151610802838989858589610a2b565b5050610381565b610381818787878787610b4f565b80518251146108465781518151604051635b05999160e01b81526004810192909252602482015260440161036b565b3360005b835181101561094c576020818102858101820151908501909101516001600160a01b038816156108fd576000828152602081815260408083206001600160a01b038c168452909152902054818110156108d6576040516303dee4c560e01b81526001600160a01b038a16600482015260248101829052604481018390526064810184905260840161036b565b6000838152602081815260408083206001600160a01b038d16845290915290209082900390555b6001600160a01b03871615610942576000828152602081815260408083206001600160a01b038b1684529091528120805483929061093c90849061139f565b90915550505b505060010161084a565b5082516001036109cd5760208301516000906020840151909150856001600160a01b0316876001600160a01b0316846001600160a01b03167fc3d58168c5ae7397731d063d5bbf3d657854427343f4c083240f7aacaa2d0f6285856040516109be929190918252602082015260400190565b60405180910390a4505061063c565b836001600160a01b0316856001600160a01b0316826001600160a01b03167f4a39dc06d4c0dbc64b70af90fd698a233a518aa5d07e595d983b8c0526c8f7fb8686604051610a1c9291906113c0565b60405180910390a45050505050565b6001600160a01b0384163b156103815760405163f23a6e6160e01b81526001600160a01b0385169063f23a6e6190610a6f90899089908890889088906004016113ee565b6020604051808303816000875af1925050508015610aaa575060408051601f3d908101601f19168201909252610aa791810190611433565b60015b610b13573d808015610ad8576040519150601f19603f3d011682016040523d82523d6000602084013e610add565b606091505b508051600003610b0b57604051632bfa23e760e11b81526001600160a01b038616600482015260240161036b565b805181602001fd5b6001600160e01b0319811663f23a6e6160e01b146107bb57604051632bfa23e760e11b81526001600160a01b038616600482015260240161036b565b6001600160a01b0384163b156103815760405163bc197c8160e01b81526001600160a01b0385169063bc197c8190610b939089908990889088908890600401611450565b6020604051808303816000875af1925050508015610bce575060408051601f3d908101601f19168201909252610bcb91810190611433565b60015b610bfc573d808015610ad8576040519150601f19603f3d011682016040523d82523d6000602084013e610add565b6001600160e01b0319811663bc197c8160e01b146107bb57604051632bfa23e760e11b81526001600160a01b038616600482015260240161036b565b80356001600160a01b0381168114610c4f57600080fd5b919050565b60008060408385031215610c6757600080fd5b610c7083610c38565b946020939093013593505050565b6001600160e01b03198116811461027457600080fd5b600060208284031215610ca657600080fd5b8135610cb181610c7e565b9392505050565b634e487b7160e01b600052604160045260246000fd5b604051601f8201601f191681016001600160401b0381118282101715610cf657610cf6610cb8565b604052919050565b6000806001600160401b03841115610d1857610d18610cb8565b50601f8301601f1916602001610d2d81610cce565b915050828152838383011115610d4257600080fd5b828260208301376000602084830101529392505050565b600060208284031215610d6b57600080fd5b81356001600160401b03811115610d8157600080fd5b8201601f81018413610d9257600080fd5b610da184823560208401610cfe565b949350505050565b600060208284031215610dbb57600080fd5b5035919050565b6000815180845260005b81811015610de857602081850181015186830182015201610dcc565b506000602082860101526020601f19601f83011685010191505092915050565b602081526000610cb16020830184610dc2565b60006001600160401b03821115610e3457610e34610cb8565b5060051b60200190565b600082601f830112610e4f57600080fd5b8135610e62610e5d82610e1b565b610cce565b8082825260208201915060208360051b860101925085831115610e8457600080fd5b602085015b83811015610ea1578035835260209283019201610e89565b5095945050505050565b600082601f830112610ebc57600080fd5b610cb183833560208501610cfe565b60008060008060808587031215610ee157600080fd5b610eea85610c38565b935060208501356001600160401b03811115610f0557600080fd5b610f1187828801610e3e565b93505060408501356001600160401b03811115610f2d57600080fd5b610f3987828801610e3e565b92505060608501356001600160401b03811115610f5557600080fd5b610f6187828801610eab565b91505092959194509250565b600080600080600060a08688031215610f8557600080fd5b610f8e86610c38565b9450610f9c60208701610c38565b935060408601356001600160401b03811115610fb757600080fd5b610fc388828901610e3e565b93505060608601356001600160401b03811115610fdf57600080fd5b610feb88828901610e3e565b92505060808601356001600160401b0381111561100757600080fd5b61101388828901610eab565b9150509295509295909350565b6000806040838503121561103357600080fd5b82356001600160401b0381111561104957600080fd5b8301601f8101851361105a57600080fd5b8035611068610e5d82610e1b565b8082825260208201915060208360051b85010192508783111561108a57600080fd5b6020840193505b828410156110b3576110a284610c38565b825260209384019390910190611091565b945050505060208301356001600160401b038111156110d157600080fd5b6110dd85828601610e3e565b9150509250929050565b600081518084526020840193506020830160005b828110156111195781518652602095860195909101906001016110fb565b5093949350505050565b602081526000610cb160208301846110e7565b6000806000806080858703121561114c57600080fd5b61115585610c38565b9350602085013592506040850135915060608501356001600160401b03811115610f5557600080fd5b6000806040838503121561119157600080fd5b61119a83610c38565b9150602083013580151581146111af57600080fd5b809150509250929050565b600080604083850312156111cd57600080fd5b6111d683610c38565b91506111e460208401610c38565b90509250929050565b600080600080600060a0868803121561120557600080fd5b61120e86610c38565b945061121c60208701610c38565b9350604086013592506060860135915060808601356001600160401b0381111561100757600080fd5b600181811c9082168061125957607f821691505b60208210810361127957634e487b7160e01b600052602260045260246000fd5b50919050565b634e487b7160e01b600052603260045260246000fd5b601f8211156112dc57806000526020600020601f840160051c810160208510156112bc5750805b601f840160051c820191505b8181101561063c57600081556001016112c8565b505050565b81516001600160401b038111156112fa576112fa610cb8565b61130e816113088454611245565b84611295565b6020601f821160018114611342576000831561132a5750848201515b600019600385901b1c1916600184901b17845561063c565b600084815260208120601f198516915b828110156113725787850151825560209485019460019092019101611352565b50848210156113905786840151600019600387901b60f8161c191681555b50505050600190811b01905550565b8082018082111561021557634e487b7160e01b600052601160045260246000fd5b6040815260006113d360408301856110e7565b82810360208401526113e581856110e7565b95945050505050565b6001600160a01b03868116825285166020820152604081018490526060810183905260a06080820181905260009061142890830184610dc2565b979650505050505050565b60006020828403121561144557600080fd5b8151610cb181610c7e565b6001600160a01b0386811682528516602082015260a06040820181905260009061147c908301866110e7565b828103606084015261148e81866110e7565b905082810360808401526114a28185610dc2565b9897505050505050505056fea2646970667358221220a3e9186af92bb1ae4579fc57480e0ce0a684e8ce46b39dc49921570de4ede3de64736f6c634300081a0033",
  "linkReferences": {},
  "deployedLinkReferences": {}
}