{
  "_format": "hh-sol-artifact-1",
  "contractName": "ERC20Item",
  "sourceName": "contracts/ERC20Item.sol",
  "abi": [
    {
      "inputs": [
        {
          "internalType": "address",
          "name": "initialOwner",
          "type": "address"
        },
        {
          "internalType": "string",
          "name": "tokenName",
          "type": "string"
        },
        {
          "internalType": "string",
          "name": "tokenSymbol",
          "type": "string"
        },
        {
          "internalType": "uint256",
          "name": "preMintAmount",
          "type": "uint256"
        }
      ],
      "stateMutability": "nonpayable",
      "type": "constructor"
    },
    {
      "inputs": [],
      "name": "ECDSAInvalidSignature",
      "type": "error"
    },
    {
      "inputs": [
        {
          "internalType": "uint256",
          "name": "length",
          "type": "uint256"
        }
      ],
      "name": "ECDSAInvalidSignatureLength",
      "type": "error"
    },
    {
      "inputs": [
        {
          "internalType": "bytes32",
          "name": "s",
          "type": "bytes32"
        }
      ],
      "name": "ECDSAInvalidSignatureS",
      "type": "error"
    },
    {
      "inputs": [
        {
          "internalType": "address",
          "name": "spender",
          "type": "address"
        },
        {
          "internalType": "uint256",
          "name": "allowance",
          "type": "uint256"
        },
        {
          "internalType": "uint256",
          "name": "needed",
          "type": "uint256"
        }
      ],
      "name": "ERC20InsufficientAllowance",
      "type": "error"
    },
    {
      "inputs": [
        {
          "internalType": "address",
          "name": "sender",
          "type": "address"
        },
        {
          "internalType": "uint256",
          "name": "balance",
          "type": "uint256"
        },
        {
          "internalType": "uint256",
          "name": "needed",
          "type": "uint256"
        }
      ],
      "name": "ERC20InsufficientBalance",
      "type": "error"
    },
    {
      "inputs": [
        {
          "internalType": "address",
          "name": "approver",
          "type": "address"
        }
      ],
      "name": "ERC20InvalidApprover",
      "type": "error"
    },
    {
      "inputs": [
        {
          "internalType": "address",
          "name": "receiver",
          "type": "address"
        }
      ],
      "name": "ERC20InvalidReceiver",
      "type": "error"
    },
    {
      "inputs": [
        {
          "internalType": "address",
          "name": "sender",
          "type": "address"
        }
      ],
      "name": "ERC20InvalidSender",
      "type": "error"
    },
    {
      "inputs": [
        {
          "internalType": "address",
          "name": "spender",
          "type": "address"
        }
      ],
      "name": "ERC20InvalidSpender",
      "type": "error"
    },
    {
      "inputs": [
        {
          "internalType": "uint256",
          "name": "deadline",
          "type": "uint256"
        }
      ],
      "name": "ERC2612ExpiredSignature",
      "type": "error"
    },
    {
      "inputs": [
        {
          "internalType": "address",
          "name": "signer",
          "type": "address"
        },
        {
          "internalType": "address",
          "name": "owner",
          "type": "address"
        }
      ],
      "name": "ERC2612InvalidSigner",
      "type": "error"
    },
    {
      "inputs": [
        {
          "internalType": "address",
          "name": "account",
          "type": "address"
        },
        {
          "internalType": "uint256",
          "name": "currentNonce",
          "type": "uint256"
        }
      ],
      "name": "InvalidAccountNonce",
      "type": "error"
    },
    {
      "inputs": [],
      "name": "InvalidShortString",
      "type": "error"
    },
    {
      "inputs": [
        {
          "internalType": "string",
          "name": "str",
          "type": "string"
        }
      ],
      "name": "StringTooLong",
      "type": "error"
    },
    {
      "anonymous": false,
      "inputs": [
        {
          "indexed": true,
          "internalType": "address",
          "name": "owner",
          "type": "address"
        },
        {
          "indexed": true,
          "internalType": "address",
          "name": "spender",
          "type": "address"
        },
        {
          "indexed": false,
          "internalType": "uint256",
          "name": "value",
          "type": "uint256"
        }
      ],
      "name": "Approval",
      "type": "event"
    },
    {
      "anonymous": false,
      "inputs": [],
      "name": "EIP712DomainChanged",
      "type": "event"
    },
    {
      "anonymous": false,
      "inputs": [
        {
          "indexed": true,
          "internalType": "address",
          "name": "from",
          "type": "address"
        },
        {
          "indexed": true,
          "internalType": "address",
          "name": "to",
          "type": "address"
        },
        {
          "indexed": false,
          "internalType": "uint256",
          "name": "value",
          "type": "uint256"
        }
      ],
      "name": "Transfer",
      "type": "event"
    },
    {
      "inputs": [],
      "name": "DOMAIN_SEPARATOR",
      "outputs": [
        {
          "internalType": "bytes32",
          "name": "",
          "type": "bytes32"
        }
      ],
      "stateMutability": "view",
      "type": "function"
    },
    {
      "inputs": [
        {
          "internalType": "address",
          "name": "owner",
          "type": "address"
        },
        {
          "internalType": "address",
          "name": "spender",
          "type": "address"
        }
      ],
      "name": "allowance",
      "outputs": [
        {
          "internalType": "uint256",
          "name": "",
          "type": "uint256"
        }
      ],
      "stateMutability": "view",
      "type": "function"
    },
    {
      "inputs": [
        {
          "internalType": "address",
          "name": "spender",
          "type": "address"
        },
        {
          "internalType": "uint256",
          "name": "value",
          "type": "uint256"
        }
      ],
      "name": "approve",
      "outputs": [
        {
          "internalType": "bool",
          "name": "",
          "type": "bool"
        }
      ],
      "stateMutability": "nonpayable",
      "type": "function"
    },
    {
      "inputs": [
        {
          "internalType": "address",
          "name": "account",
          "type": "address"
        }
      ],
      "name": "balanceOf",
      "outputs": [
        {
          "internalType": "uint256",
          "name": "",
          "type": "uint256"
        }
      ],
      "stateMutability": "view",
      "type": "function"
    },
    {
      "inputs": [
        {
          "internalType": "uint256",
          "name": "value",
          "type": "uint256"
        }
      ],
      "name": "burn",
      "outputs": [],
      "stateMutability": "nonpayable",
      "type": "function"
    },
    {
      "inputs": [
        {
          "internalType": "address",
          "name": "account",
          "type": "address"
        },
        {
          "internalType": "uint256",
          "name": "value",
          "type": "uint256"
        }
      ],
      "name": "burnFrom",
      "outputs": [],
      "stateMutability": "nonpayable",
      "type": "function"
    },
    {
      "inputs": [],
      "name": "decimals",
      "outputs": [
        {
          "internalType": "uint8",
          "name": "",
          "type": "uint8"
        }
      ],
      "stateMutability": "view",
      "type": "function"
    },
    {
      "inputs": [],
      "name": "eip712Domain",
      "outputs": [
        {
          "internalType": "bytes1",
          "name": "fields",
          "type": "bytes1"
        },
        {
          "internalType": "string",
          "name": "name",
          "type": "string"
        },
        {
          "internalType": "string",
          "name": "version",
          "type": "string"
        },
        {
          "internalType": "uint256",
          "name": "chainId",
          "type": "uint256"
        },
        {
          "internalType": "address",
          "name": "verifyingContract",
          "type": "address"
        },
        {
          "internalType": "bytes32",
          "name": "salt",
          "type": "bytes32"
        },
        {
          "internalType": "uint256[]",
          "name": "extensions",
          "type": "uint256[]"
        }
      ],
      "stateMutability": "view",
      "type": "function"
    },
    {
      "inputs": [
        {
          "internalType": "address",
          "name": "to",
          "type": "address"
        },
        {
          "internalType": "uint256",
          "name": "amount",
          "type": "uint256"
        }
      ],
      "name": "mint",
      "outputs": [],
      "stateMutability": "nonpayable",
      "type": "function"
    },
    {
      "inputs": [],
      "name": "name",
      "outputs": [
        {
          "internalType": "string",
          "name": "",
          "type": "string"
        }
      ],
      "stateMutability": "view",
      "type": "function"
    },
    {
      "inputs": [
        {
          "internalType": "address",
          "name": "owner",
          "type": "address"
        }
      ],
      "name": "nonces",
      "outputs": [
        {
          "internalType": "uint256",
          "name": "",
          "type": "uint256"
        }
      ],
      "stateMutability": "view",
      "type": "function"
    },
    {
      "inputs": [
        {
          "internalType": "address",
          "name": "owner",
          "type": "address"
        },
        {
          "internalType": "address",
          "name": "spender",
          "type": "address"
        },
        {
          "internalType": "uint256",
          "name": "value",
          "type": "uint256"
        },
        {
          "internalType": "uint256",
          "name": "deadline",
          "type": "uint256"
        },
        {
          "internalType": "uint8",
          "name": "v",
          "type": "uint8"
        },
        {
          "internalType": "bytes32",
          "name": "r",
          "type": "bytes32"
        },
        {
          "internalType": "bytes32",
          "name": "s",
          "type": "bytes32"
        }
      ],
      "name": "permit",
      "outputs": [],
      "stateMutability": "nonpayable",
      "type": "function"
    },
    {
      "inputs": [],
      "name": "symbol",
      "outputs": [
        {
          "internalType": "string",
          "name": "",
          "type": "string"
        }
      ],
      "stateMutability": "view",
      "type": "function"
    },
    {
      "inputs": [],
      "name": "totalSupply",
      "outputs": [
        {
          "internalType": "uint256",
          "name": "",
          "type": "uint256"
        }
      ],
      "stateMutability": "view",
      "type": "function"
    },
    {
      "inputs": [
        {
          "internalType": "address",
          "name": "to",
          "type": "address"
        },
        {
          "internalType": "uint256",
          "name": "value",
          "type": "uint256"
        }
      ],
      "name": "transfer",
      "outputs": [
        {
          "internalType": "bool",
          "name": "",
          "type": "bool"
        }
      ],
      "stateMutability": "nonpayable",
      "type": "function"
    },
    {
      "inputs": [
        {
          "internalType": "address",
          "name": "from",
          "type": "address"
        },
        {
          "internalType": "address",
          "name": "to",
          "type": "address"
        },
        {
          "internalType": "uint256",
          "name": "value",
          "type": "uint256"
        }
      ],
      "name": "transferFrom",
      "outputs": [
        {
          "internalType": "bool",
          "name": "",
          "type": "bool"
        }
      ],
      "stateMutability": "nonpayable",
      "type": "function"
    }
  ],
  "bytecode": "0x61016060405234801561001157600080fd5b506040516117c13803806117c1833981016040819052610030916103e2565b6040805180820190915260018152603160f81b6020820152839081908185600361005a83826104fb565b50600461006782826104fb565b5061007791508390506005610145565b61012052610086816006610145565b61014052815160208084019190912060e052815190820120610100524660a05261011360e05161010051604080517f8b73c3c69bb8fe3d512ecc4cf759cc79239f7b179b0ffacaa9a75d522b39400f60208201529081019290925260608201524660808201523060a082015260009060c00160405160208183030381529060405280519060200120905090565b60805250503060c0525061013c8461012d6012600a6106b6565b61013790846106cc565b610178565b5050505061074d565b60006020835110156101615761015a836101b7565b9050610172565b8161016c84826104fb565b5060ff90505b92915050565b6001600160a01b0382166101a75760405163ec442f0560e01b8152600060048201526024015b60405180910390fd5b6101b3600083836101f5565b5050565b600080829050601f815111156101e2578260405163305a27a960e01b815260040161019e91906106e3565b80516101ed82610716565b179392505050565b6001600160a01b038316610220578060026000828254610215919061073a565b909155506102929050565b6001600160a01b038316600090815260208190526040902054818110156102735760405163391434e360e21b81526001600160a01b0385166004820152602481018290526044810183905260640161019e565b6001600160a01b03841660009081526020819052604090209082900390555b6001600160a01b0382166102ae576002805482900390556102cd565b6001600160a01b03821660009081526020819052604090208054820190555b816001600160a01b0316836001600160a01b03167fddf252ad1be2c89b69c2b068fc378daa952ba7f163c4a11628f55a4df523b3ef8360405161031291815260200190565b60405180910390a3505050565b634e487b7160e01b600052604160045260246000fd5b60005b83811015610350578181015183820152602001610338565b50506000910152565b600082601f83011261036a57600080fd5b81516001600160401b038111156103835761038361031f565b604051601f8201601f19908116603f011681016001600160401b03811182821017156103b1576103b161031f565b6040528181528382016020018510156103c957600080fd5b6103da826020830160208701610335565b949350505050565b600080600080608085870312156103f857600080fd5b84516001600160a01b038116811461040f57600080fd5b60208601519094506001600160401b0381111561042b57600080fd5b61043787828801610359565b604087015190945090506001600160401b0381111561045557600080fd5b61046187828801610359565b606096909601519497939650505050565b600181811c9082168061048657607f821691505b6020821081036104a657634e487b7160e01b600052602260045260246000fd5b50919050565b601f8211156104f657806000526020600020601f840160051c810160208510156104d35750805b601f840160051c820191505b818110156104f357600081556001016104df565b50505b505050565b81516001600160401b038111156105145761051461031f565b610528816105228454610472565b846104ac565b6020601f82116001811461055c57600083156105445750848201515b600019600385901b1c1916600184901b1784556104f3565b600084815260208120601f198516915b8281101561058c578785015182556020948501946001909201910161056c565b50848210156105aa5786840151600019600387901b60f8161c191681555b50505050600190811b01905550565b634e487b7160e01b600052601160045260246000fd5b6001815b600184111561060a578085048111156105ee576105ee6105b9565b60018416156105fc57908102905b60019390931c9280026105d3565b935093915050565b60008261062157506001610172565b8161062e57506000610172565b8160018114610644576002811461064e5761066a565b6001915050610172565b60ff84111561065f5761065f6105b9565b50506001821b610172565b5060208310610133831016604e8410600b841016171561068d575081810a610172565b61069a60001984846105cf565b80600019048211156106ae576106ae6105b9565b029392505050565b60006106c560ff841683610612565b9392505050565b8082028115828204841417610172576101726105b9565b6020815260008251806020840152610702816040850160208701610335565b601f01601f19169190910160400192915050565b805160208083015191908110156104a65760001960209190910360031b1b16919050565b80820180821115610172576101726105b9565b60805160a05160c05160e05161010051610120516101405161101a6107a76000396000610804015260006107d701526000610713015260006106eb01526000610646015260006106700152600061069a015261101a6000f3fe608060405234801561001057600080fd5b50600436106101005760003560e01c806370a082311161009757806395d89b411161006657806395d89b4114610214578063a9059cbb1461021c578063d505accf1461022f578063dd62ed3e1461024257600080fd5b806370a08231146101aa57806379cc6790146101d35780637ecebe00146101e657806384b0196e146101f957600080fd5b8063313ce567116100d3578063313ce5671461016b5780633644e5151461017a57806340c10f191461018257806342966c681461019757600080fd5b806306fdde0314610105578063095ea7b31461012357806318160ddd1461014657806323b872dd14610158575b600080fd5b61010d61027b565b60405161011a9190610d64565b60405180910390f35b610136610131366004610d9a565b61030d565b604051901515815260200161011a565b6002545b60405190815260200161011a565b610136610166366004610dc4565b610327565b6040516012815260200161011a565b61014a61034b565b610195610190366004610d9a565b61035a565b005b6101956101a5366004610e01565b610368565b61014a6101b8366004610e1a565b6001600160a01b031660009081526020819052604090205490565b6101956101e1366004610d9a565b610375565b61014a6101f4366004610e1a565b61038a565b6102016103a8565b60405161011a9796959493929190610e35565b61010d6103ee565b61013661022a366004610d9a565b6103fd565b61019561023d366004610ecd565b61040b565b61014a610250366004610f40565b6001600160a01b03918216600090815260016020908152604080832093909416825291909152205490565b60606003805461028a90610f73565b80601f01602080910402602001604051908101604052809291908181526020018280546102b690610f73565b80156103035780601f106102d857610100808354040283529160200191610303565b820191906000526020600020905b8154815290600101906020018083116102e657829003601f168201915b5050505050905090565b60003361031b81858561054a565b60019150505b92915050565b60003361033585828561055c565b6103408585856105da565b506001949350505050565b6000610355610639565b905090565b6103648282610764565b5050565b610372338261079a565b50565b61038082338361055c565b610364828261079a565b6001600160a01b038116600090815260076020526040812054610321565b6000606080600080600060606103bc6107d0565b6103c46107fd565b60408051600080825260208201909252600f60f81b9b939a50919850469750309650945092509050565b60606004805461028a90610f73565b60003361031b8185856105da565b834211156104345760405163313c898160e11b8152600481018590526024015b60405180910390fd5b60007f6e71edae12b1b97f4d1f60370fef10105fa2faae0126114a169c64845d6126c98888886104818c6001600160a01b0316600090815260076020526040902080546001810190915590565b6040805160208101969096526001600160a01b0394851690860152929091166060840152608083015260a082015260c0810186905260e00160405160208183030381529060405280519060200120905060006104dc8261082a565b905060006104ec82878787610857565b9050896001600160a01b0316816001600160a01b031614610533576040516325c0072360e11b81526001600160a01b0380831660048301528b16602482015260440161042b565b61053e8a8a8a61054a565b50505050505050505050565b6105578383836001610885565b505050565b6001600160a01b0383811660009081526001602090815260408083209386168352929052205460001981146105d457818110156105c557604051637dc7a0d960e11b81526001600160a01b0384166004820152602481018290526044810183905260640161042b565b6105d484848484036000610885565b50505050565b6001600160a01b03831661060457604051634b637e8f60e11b81526000600482015260240161042b565b6001600160a01b03821661062e5760405163ec442f0560e01b81526000600482015260240161042b565b61055783838361095a565b6000306001600160a01b037f00000000000000000000000000000000000000000000000000000000000000001614801561069257507f000000000000000000000000000000000000000000000000000000000000000046145b156106bc57507f000000000000000000000000000000000000000000000000000000000000000090565b610355604080517f8b73c3c69bb8fe3d512ecc4cf759cc79239f7b179b0ffacaa9a75d522b39400f60208201527f0000000000000000000000000000000000000000000000000000000000000000918101919091527f000000000000000000000000000000000000000000000000000000000000000060608201524660808201523060a082015260009060c00160405160208183030381529060405280519060200120905090565b6001600160a01b03821661078e5760405163ec442f0560e01b81526000600482015260240161042b565b6103646000838361095a565b6001600160a01b0382166107c457604051634b637e8f60e11b81526000600482015260240161042b565b6103648260008361095a565b60606103557f00000000000000000000000000000000000000000000000000000000000000006005610a84565b60606103557f00000000000000000000000000000000000000000000000000000000000000006006610a84565b6000610321610837610639565b8360405161190160f01b8152600281019290925260228201526042902090565b60008060008061086988888888610b2f565b9250925092506108798282610bfe565b50909695505050505050565b6001600160a01b0384166108af5760405163e602df0560e01b81526000600482015260240161042b565b6001600160a01b0383166108d957604051634a1406b160e11b81526000600482015260240161042b565b6001600160a01b03808516600090815260016020908152604080832093871683529290522082905580156105d457826001600160a01b0316846001600160a01b03167f8c5be1e5ebec7d5bd14f71427d1e84f3dd0314c0f7b2291e5b200ac8c7c3b9258460405161094c91815260200190565b60405180910390a350505050565b6001600160a01b03831661098557806002600082825461097a9190610fad565b909155506109f79050565b6001600160a01b038316600090815260208190526040902054818110156109d85760405163391434e360e21b81526001600160a01b0385166004820152602481018290526044810183905260640161042b565b6001600160a01b03841660009081526020819052604090209082900390555b6001600160a01b038216610a1357600280548290039055610a32565b6001600160a01b03821660009081526020819052604090208054820190555b816001600160a01b0316836001600160a01b03167fddf252ad1be2c89b69c2b068fc378daa952ba7f163c4a11628f55a4df523b3ef83604051610a7791815260200190565b60405180910390a3505050565b606060ff8314610a9e57610a9783610cb7565b9050610321565b818054610aaa90610f73565b80601f0160208091040260200160405190810160405280929190818152602001828054610ad690610f73565b8015610b235780601f10610af857610100808354040283529160200191610b23565b820191906000526020600020905b815481529060010190602001808311610b0657829003601f168201915b50505050509050610321565b600080807f7fffffffffffffffffffffffffffffff5d576e7357a4501ddfe92f46681b20a0841115610b6a5750600091506003905082610bf4565b604080516000808252602082018084528a905260ff891692820192909252606081018790526080810186905260019060a0016020604051602081039080840390855afa158015610bbe573d6000803e3d6000fd5b5050604051601f1901519150506001600160a01b038116610bea57506000925060019150829050610bf4565b9250600091508190505b9450945094915050565b6000826003811115610c1257610c12610fce565b03610c1b575050565b6001826003811115610c2f57610c2f610fce565b03610c4d5760405163f645eedf60e01b815260040160405180910390fd5b6002826003811115610c6157610c61610fce565b03610c825760405163fce698f760e01b81526004810182905260240161042b565b6003826003811115610c9657610c96610fce565b03610364576040516335e2f38360e21b81526004810182905260240161042b565b60606000610cc483610cf6565b604080516020808252818301909252919250600091906020820181803683375050509182525060208101929092525090565b600060ff8216601f81111561032157604051632cd44ac360e21b815260040160405180910390fd5b6000815180845260005b81811015610d4457602081850181015186830182015201610d28565b506000602082860101526020601f19601f83011685010191505092915050565b602081526000610d776020830184610d1e565b9392505050565b80356001600160a01b0381168114610d9557600080fd5b919050565b60008060408385031215610dad57600080fd5b610db683610d7e565b946020939093013593505050565b600080600060608486031215610dd957600080fd5b610de284610d7e565b9250610df060208501610d7e565b929592945050506040919091013590565b600060208284031215610e1357600080fd5b5035919050565b600060208284031215610e2c57600080fd5b610d7782610d7e565b60ff60f81b8816815260e060208201526000610e5460e0830189610d1e565b8281036040840152610e668189610d1e565b606084018890526001600160a01b038716608085015260a0840186905283810360c08501528451808252602080870193509091019060005b81811015610ebc578351835260209384019390920191600101610e9e565b50909b9a5050505050505050505050565b600080600080600080600060e0888a031215610ee857600080fd5b610ef188610d7e565b9650610eff60208901610d7e565b95506040880135945060608801359350608088013560ff81168114610f2357600080fd5b9699959850939692959460a0840135945060c09093013592915050565b60008060408385031215610f5357600080fd5b610f5c83610d7e565b9150610f6a60208401610d7e565b90509250929050565b600181811c90821680610f8757607f821691505b602082108103610fa757634e487b7160e01b600052602260045260246000fd5b50919050565b8082018082111561032157634e487b7160e01b600052601160045260246000fd5b634e487b7160e01b600052602160045260246000fdfea2646970667358221220d4c64c4c71be27684be5d19480b43333174ba38afe089495f5c463e8508eb73564736f6c634300081a0033",
  "linkReferences": {},
  "deployedLinkReferences": {}
}