{
  "_format": "hh-sol-artifact-1",
  "contractName": "ERC721Item",
  "sourceName": "contracts/ERC721Item.sol",
  "abi": [
    {
      "inputs": [
        {
          "internalType": "address",
          "name": "initialOwner",
          "type": "address"
        },
        {
          "internalType": "string",
          "name": "tokenName",
          "type": "string"
        },
        {
          "internalType": "string",
          "name": "tokenSymbol",
          "type": "string"
        },
        {
          "internalType": "uint256",
          "name": "mintAmount",
          "type": "uint256"
        },
        {
          "internalType": "string",
          "name": "baseURI_",
          "type": "string"
        }
      ],
      "stateMutability": "nonpayable",
      "type": "constructor"
    },
    {
      "inputs": [
        {
          "internalType": "address",
          "name": "sender",
          "type": "address"
        },
        {
          "internalType": "uint256",
          "name": "tokenId",
          "type": "uint256"
        },
        {
          "internalType": "address",
          "name": "owner",
          "type": "address"
        }
      ],
      "name": "ERC721IncorrectOwner",
      "type": "error"
    },
    {
      "inputs": [
        {
          "internalType": "address",
          "name": "operator",
          "type": "address"
        },
        {
          "internalType": "uint256",
          "name": "tokenId",
          "type": "uint256"
        }
      ],
      "name": "ERC721InsufficientApproval",
      "type": "error"
    },
    {
      "inputs": [
        {
          "internalType": "address",
          "name": "approver",
          "type": "address"
        }
      ],
      "name": "ERC721InvalidApprover",
      "type": "error"
    },
    {
      "inputs": [
        {
          "internalType": "address",
          "name": "operator",
          "type": "address"
        }
      ],
      "name": "ERC721InvalidOperator",
      "type": "error"
    },
    {
      "inputs": [
        {
          "internalType": "address",
          "name": "owner",
          "type": "address"
        }
      ],
      "name": "ERC721InvalidOwner",
      "type": "error"
    },
    {
      "inputs": [
        {
          "internalType": "address",
          "name": "receiver",
          "type": "address"
        }
      ],
      "name": "ERC721InvalidReceiver",
      "type": "error"
    },
    {
      "inputs": [
        {
          "internalType": "address",
          "name": "sender",
          "type": "address"
        }
      ],
      "name": "ERC721InvalidSender",
      "type": "error"
    },
    {
      "inputs": [
        {
          "internalType": "uint256",
          "name": "tokenId",
          "type": "uint256"
        }
      ],
      "name": "ERC721NonexistentToken",
      "type": "error"
    },
    {
      "anonymous": false,
      "inputs": [
        {
          "indexed": true,
          "internalType": "address",
          "name": "owner",
          "type": "address"
        },
        {
          "indexed": true,
          "internalType": "address",
          "name": "approved",
          "type": "address"
        },
        {
          "indexed": true,
          "internalType": "uint256",
          "name": "tokenId",
          "type": "uint256"
        }
      ],
      "name": "Approval",
      "type": "event"
    },
    {
      "anonymous": false,
      "inputs": [
        {
          "indexed": true,
          "internalType": "address",
          "name": "owner",
          "type": "address"
        },
        {
          "indexed": true,
          "internalType": "address",
          "name": "operator",
          "type": "address"
        },
        {
          "indexed": false,
          "internalType": "bool",
          "name": "approved",
          "type": "bool"
        }
      ],
      "name": "ApprovalForAll",
      "type": "event"
    },
    {
      "anonymous": false,
      "inputs": [
        {
          "indexed": true,
          "internalType": "address",
          "name": "from",
          "type": "address"
        },
        {
          "indexed": true,
          "internalType": "address",
          "name": "to",
          "type": "address"
        },
        {
          "indexed": true,
          "internalType": "uint256",
          "name": "tokenId",
          "type": "uint256"
        }
      ],
      "name": "Transfer",
      "type": "event"
    },
    {
      "inputs": [
        {
          "internalType": "address",
          "name": "to",
          "type": "address"
        },
        {
          "internalType": "uint256",
          "name": "tokenId",
          "type": "uint256"
        }
      ],
      "name": "approve",
      "outputs": [],
      "stateMutability": "nonpayable",
      "type": "function"
    },
    {
      "inputs": [
        {
          "internalType": "address",
          "name": "owner",
          "type": "address"
        }
      ],
      "name": "balanceOf",
      "outputs": [
        {
          "internalType": "uint256",
          "name": "",
          "type": "uint256"
        }
      ],
      "stateMutability": "view",
      "type": "function"
    },
    {
      "inputs": [
        {
          "internalType": "uint256",
          "name": "tokenId",
          "type": "uint256"
        }
      ],
      "name": "burn",
      "outputs": [],
      "stateMutability": "nonpayable",
      "type": "function"
    },
    {
      "inputs": [
        {
          "internalType": "uint256",
          "name": "tokenId",
          "type": "uint256"
        }
      ],
      "name": "getApproved",
      "outputs": [
        {
          "internalType": "address",
          "name": "",
          "type": "address"
        }
      ],
      "stateMutability": "view",
      "type": "function"
    },
    {
      "inputs": [
        {
          "internalType": "address",
          "name": "owner",
          "type": "address"
        },
        {
          "internalType": "address",
          "name": "operator",
          "type": "address"
        }
      ],
      "name": "isApprovedForAll",
      "outputs": [
        {
          "internalType": "bool",
          "name": "",
          "type": "bool"
        }
      ],
      "stateMutability": "view",
      "type": "function"
    },
    {
      "inputs": [],
      "name": "name",
      "outputs": [
        {
          "internalType": "string",
          "name": "",
          "type": "string"
        }
      ],
      "stateMutability": "view",
      "type": "function"
    },
    {
      "inputs": [
        {
          "internalType": "uint256",
          "name": "tokenId",
          "type": "uint256"
        }
      ],
      "name": "ownerOf",
      "outputs": [
        {
          "internalType": "address",
          "name": "",
          "type": "address"
        }
      ],
      "stateMutability": "view",
      "type": "function"
    },
    {
      "inputs": [
        {
          "internalType": "address",
          "name": "to",
          "type": "address"
        }
      ],
      "name": "safeMint",
      "outputs": [],
      "stateMutability": "nonpayable",
      "type": "function"
    },
    {
      "inputs": [
        {
          "internalType": "address",
          "name": "from",
          "type": "address"
        },
        {
          "internalType": "address",
          "name": "to",
          "type": "address"
        },
        {
          "internalType": "uint256",
          "name": "tokenId",
          "type": "uint256"
        }
      ],
      "name": "safeTransferFrom",
      "outputs": [],
      "stateMutability": "nonpayable",
      "type": "function"
    },
    {
      "inputs": [
        {
          "internalType": "address",
          "name": "from",
          "type": "address"
        },
        {
          "internalType": "address",
          "name": "to",
          "type": "address"
        },
        {
          "internalType": "uint256",
          "name": "tokenId",
          "type": "uint256"
        },
        {
          "internalType": "bytes",
          "name": "data",
          "type": "bytes"
        }
      ],
      "name": "safeTransferFrom",
      "outputs": [],
      "stateMutability": "nonpayable",
      "type": "function"
    },
    {
      "inputs": [
        {
          "internalType": "address",
          "name": "operator",
          "type": "address"
        },
        {
          "internalType": "bool",
          "name": "approved",
          "type": "bool"
        }
      ],
      "name": "setApprovalForAll",
      "outputs": [],
      "stateMutability": "nonpayable",
      "type": "function"
    },
    {
      "inputs": [
        {
          "internalType": "bytes4",
          "name": "interfaceId",
          "type": "bytes4"
        }
      ],
      "name": "supportsInterface",
      "outputs": [
        {
          "internalType": "bool",
          "name": "",
          "type": "bool"
        }
      ],
      "stateMutability": "view",
      "type": "function"
    },
    {
      "inputs": [],
      "name": "symbol",
      "outputs": [
        {
          "internalType": "string",
          "name": "",
          "type": "string"
        }
      ],
      "stateMutability": "view",
      "type": "function"
    },
    {
      "inputs": [
        {
          "internalType": "uint256",
          "name": "tokenId",
          "type": "uint256"
        }
      ],
      "name": "tokenURI",
      "outputs": [
        {
          "internalType": "string",
          "name": "",
          "type": "string"
        }
      ],
      "stateMutability": "view",
      "type": "function"
    },
    {
      "inputs": [
        {
          "internalType": "address",
          "name": "from",
          "type": "address"
        },
        {
          "internalType": "address",
          "name": "to",
          "type": "address"
        },
        {
          "internalType": "uint256",
          "name": "tokenId",
          "type": "uint256"
        }
      ],
      "name": "transferFrom",
      "outputs": [],
      "stateMutability": "nonpayable",
      "type": "function"
    }
  ],
  "bytecode": "0x608060405234801561001057600080fd5b5060405161195338038061195383398101604081905261002f91610678565b8383600061003d83826107b8565b50600161004a82826107b8565b506007915061005b905082826107b8565b5060005b828110156100785761007086610083565b60010161005f565b505050505050610926565b600680546000918261009483610876565b9091555090506100a482826100a8565b5050565b6100a48282604051806020016040528060008152506100c860201b60201c565b6100d283836100e4565b6100df600084848461014d565b505050565b6001600160a01b03821661011357604051633250574960e11b8152600060048201526024015b60405180910390fd5b6000610120838383610277565b90506001600160a01b038116156100df576040516339e3563760e11b81526000600482015260240161010a565b6001600160a01b0383163b1561027157604051630a85bd0160e11b81526001600160a01b0384169063150b7a029061018f90339088908790879060040161089d565b6020604051808303816000875af19250505080156101ca575060408051601f3d908101601f191682019092526101c7918101906108f5565b60015b610233573d8080156101f8576040519150601f19603f3d011682016040523d82523d6000602084013e6101fd565b606091505b50805160000361022b57604051633250574960e11b81526001600160a01b038516600482015260240161010a565b805181602001fd5b6001600160e01b03198116630a85bd0160e11b1461026f57604051633250574960e11b81526001600160a01b038516600482015260240161010a565b505b50505050565b6000828152600260205260408120546001600160a01b03908116908316156102a4576102a481848661036f565b6001600160a01b038116156102e1576102c060008581806103d3565b6001600160a01b038116600090815260036020526040902080546000190190555b6001600160a01b03851615610310576001600160a01b0385166000908152600360205260409020805460010190555b60008481526002602052604080822080546001600160a01b0319166001600160a01b0389811691821790925591518793918516917fddf252ad1be2c89b69c2b068fc378daa952ba7f163c4a11628f55a4df523b3ef91a4949350505050565b61037a8383836104f8565b6100df576001600160a01b0383166103a857604051637e27328960e01b81526004810182905260240161010a565b60405163177e802f60e01b81526001600160a01b03831660048201526024810182905260440161010a565b80806103e757506001600160a01b03821615155b156104c85760006103f78461057e565b90506001600160a01b038316158015906104235750826001600160a01b0316816001600160a01b031614155b801561045557506001600160a01b0380821660009081526005602090815260408083209387168352929052205460ff16155b1561047e5760405163a9fbf51f60e01b81526001600160a01b038416600482015260240161010a565b81156104c65783856001600160a01b0316826001600160a01b03167f8c5be1e5ebec7d5bd14f71427d1e84f3dd0314c0f7b2291e5b200ac8c7c3b92560405160405180910390a45b505b5050600090815260046020526040902080546001600160a01b0319166001600160a01b0392909216919091179055565b60006001600160a01b038316158015906105765750826001600160a01b0316846001600160a01b0316148061055257506001600160a01b0380851660009081526005602090815260408083209387168352929052205460ff165b8061057657506000828152600460205260409020546001600160a01b038481169116145b949350505050565b6000818152600260205260408120546001600160a01b0316806105b757604051637e27328960e01b81526004810184905260240161010a565b92915050565b634e487b7160e01b600052604160045260246000fd5b60005b838110156105ee5781810151838201526020016105d6565b50506000910152565b600082601f83011261060857600080fd5b81516001600160401b03811115610621576106216105bd565b604051601f8201601f19908116603f011681016001600160401b038111828210171561064f5761064f6105bd565b60405281815283820160200185101561066757600080fd5b6105768260208301602087016105d3565b600080600080600060a0868803121561069057600080fd5b85516001600160a01b03811681146106a757600080fd5b60208701519095506001600160401b038111156106c357600080fd5b6106cf888289016105f7565b604088015190955090506001600160401b038111156106ed57600080fd5b6106f9888289016105f7565b60608801516080890151919550935090506001600160401b0381111561071e57600080fd5b61072a888289016105f7565b9150509295509295909350565b600181811c9082168061074b57607f821691505b60208210810361076b57634e487b7160e01b600052602260045260246000fd5b50919050565b601f8211156100df57806000526020600020601f840160051c810160208510156107985750805b601f840160051c820191505b8181101561026f57600081556001016107a4565b81516001600160401b038111156107d1576107d16105bd565b6107e5816107df8454610737565b84610771565b6020601f82116001811461081957600083156108015750848201515b600019600385901b1c1916600184901b17845561026f565b600084815260208120601f198516915b828110156108495787850151825560209485019460019092019101610829565b50848210156108675786840151600019600387901b60f8161c191681555b50505050600190811b01905550565b60006001820161089657634e487b7160e01b600052601160045260246000fd5b5060010190565b60018060a01b038516815260018060a01b038416602082015282604082015260806060820152600082518060808401526108de8160a08501602087016105d3565b601f01601f19169190910160a00195945050505050565b60006020828403121561090757600080fd5b81516001600160e01b03198116811461091f57600080fd5b9392505050565b61101e806109356000396000f3fe608060405234801561001057600080fd5b50600436106100f55760003560e01c806342966c6811610097578063a22cb46511610066578063a22cb465146101ff578063b88d4fde14610212578063c87b56dd14610225578063e985e9c51461023857600080fd5b806342966c68146101b05780636352211e146101c357806370a08231146101d657806395d89b41146101f757600080fd5b8063095ea7b3116100d3578063095ea7b31461016257806323b872dd1461017757806340d097c31461018a57806342842e0e1461019d57600080fd5b806301ffc9a7146100fa57806306fdde0314610122578063081812fc14610137575b600080fd5b61010d610108366004610c5e565b61024b565b60405190151581526020015b60405180910390f35b61012a61029d565b6040516101199190610ccb565b61014a610145366004610cde565b61032f565b6040516001600160a01b039091168152602001610119565b610175610170366004610d13565b610358565b005b610175610185366004610d3d565b610367565b610175610198366004610d7a565b6103f7565b6101756101ab366004610d3d565b610418565b6101756101be366004610cde565b610438565b61014a6101d1366004610cde565b610444565b6101e96101e4366004610d7a565b61044f565b604051908152602001610119565b61012a610497565b61017561020d366004610d95565b6104a6565b610175610220366004610de7565b6104b1565b61012a610233366004610cde565b6104c8565b61010d610246366004610ecb565b610530565b60006001600160e01b031982166380ac58cd60e01b148061027c57506001600160e01b03198216635b5e139f60e01b145b8061029757506301ffc9a760e01b6001600160e01b03198316145b92915050565b6060600080546102ac90610efe565b80601f01602080910402602001604051908101604052809291908181526020018280546102d890610efe565b80156103255780601f106102fa57610100808354040283529160200191610325565b820191906000526020600020905b81548152906001019060200180831161030857829003601f168201915b5050505050905090565b600061033a8261055e565b506000828152600460205260409020546001600160a01b0316610297565b610363828233610597565b5050565b6001600160a01b03821661039657604051633250574960e11b8152600060048201526024015b60405180910390fd5b60006103a38383336105a4565b9050836001600160a01b0316816001600160a01b0316146103f1576040516364283d7b60e01b81526001600160a01b038086166004830152602482018490528216604482015260640161038d565b50505050565b600680546000918261040883610f38565b919050559050610363828261069d565b610433838383604051806020016040528060008152506104b1565b505050565b610363600082336105a4565b60006102978261055e565b60006001600160a01b03821661047b576040516322718ad960e21b81526000600482015260240161038d565b506001600160a01b031660009081526003602052604090205490565b6060600180546102ac90610efe565b6103633383836106b7565b6104bc848484610367565b6103f184848484610756565b60606104d38261055e565b5060006104de61087f565b905060008151116104fe5760405180602001604052806000815250610529565b806105088461088e565b604051602001610519929190610f5f565b6040516020818303038152906040525b9392505050565b6001600160a01b03918216600090815260056020908152604080832093909416825291909152205460ff1690565b6000818152600260205260408120546001600160a01b03168061029757604051637e27328960e01b81526004810184905260240161038d565b6104338383836001610921565b6000828152600260205260408120546001600160a01b03908116908316156105d1576105d1818486610a27565b6001600160a01b0381161561060f576105ee600085600080610921565b6001600160a01b038116600090815260036020526040902080546000190190555b6001600160a01b0385161561063e576001600160a01b0385166000908152600360205260409020805460010190555b60008481526002602052604080822080546001600160a01b0319166001600160a01b0389811691821790925591518793918516917fddf252ad1be2c89b69c2b068fc378daa952ba7f163c4a11628f55a4df523b3ef91a4949350505050565b610363828260405180602001604052806000815250610a8b565b6001600160a01b0382166106e957604051630b61174360e31b81526001600160a01b038316600482015260240161038d565b6001600160a01b03838116600081815260056020908152604080832094871680845294825291829020805460ff191686151590811790915591519182527f17307eab39ab6107e8899845ad3d59bd9653f200f220920489ca2b5937696c31910160405180910390a3505050565b6001600160a01b0383163b156103f157604051630a85bd0160e11b81526001600160a01b0384169063150b7a0290610798903390889087908790600401610f8e565b6020604051808303816000875af19250505080156107d3575060408051601f3d908101601f191682019092526107d091810190610fcb565b60015b61083c573d808015610801576040519150601f19603f3d011682016040523d82523d6000602084013e610806565b606091505b50805160000361083457604051633250574960e11b81526001600160a01b038516600482015260240161038d565b805181602001fd5b6001600160e01b03198116630a85bd0160e11b1461087857604051633250574960e11b81526001600160a01b038516600482015260240161038d565b5050505050565b6060600780546102ac90610efe565b6060600061089b83610aa2565b600101905060008167ffffffffffffffff8111156108bb576108bb610dd1565b6040519080825280601f01601f1916602001820160405280156108e5576020820181803683370190505b5090508181016020015b600019016f181899199a1a9b1b9c1cb0b131b232b360811b600a86061a8153600a85049450846108ef57509392505050565b808061093557506001600160a01b03821615155b156109f75760006109458461055e565b90506001600160a01b038316158015906109715750826001600160a01b0316816001600160a01b031614155b801561098457506109828184610530565b155b156109ad5760405163a9fbf51f60e01b81526001600160a01b038416600482015260240161038d565b81156109f55783856001600160a01b0316826001600160a01b03167f8c5be1e5ebec7d5bd14f71427d1e84f3dd0314c0f7b2291e5b200ac8c7c3b92560405160405180910390a45b505b5050600090815260046020526040902080546001600160a01b0319166001600160a01b0392909216919091179055565b610a32838383610b7a565b610433576001600160a01b038316610a6057604051637e27328960e01b81526004810182905260240161038d565b60405163177e802f60e01b81526001600160a01b03831660048201526024810182905260440161038d565b610a958383610be0565b6104336000848484610756565b60008072184f03e93ff9f4daa797ed6e38ed64bf6a1f0160401b8310610ae15772184f03e93ff9f4daa797ed6e38ed64bf6a1f0160401b830492506040015b6d04ee2d6d415b85acef81000000008310610b0d576d04ee2d6d415b85acef8100000000830492506020015b662386f26fc100008310610b2b57662386f26fc10000830492506010015b6305f5e1008310610b43576305f5e100830492506008015b6127108310610b5757612710830492506004015b60648310610b69576064830492506002015b600a83106102975760010192915050565b60006001600160a01b03831615801590610bd85750826001600160a01b0316846001600160a01b03161480610bb45750610bb48484610530565b80610bd857506000828152600460205260409020546001600160a01b038481169116145b949350505050565b6001600160a01b038216610c0a57604051633250574960e11b81526000600482015260240161038d565b6000610c18838360006105a4565b90506001600160a01b03811615610433576040516339e3563760e11b81526000600482015260240161038d565b6001600160e01b031981168114610c5b57600080fd5b50565b600060208284031215610c7057600080fd5b813561052981610c45565b60005b83811015610c96578181015183820152602001610c7e565b50506000910152565b60008151808452610cb7816020860160208601610c7b565b601f01601f19169290920160200192915050565b6020815260006105296020830184610c9f565b600060208284031215610cf057600080fd5b5035919050565b80356001600160a01b0381168114610d0e57600080fd5b919050565b60008060408385031215610d2657600080fd5b610d2f83610cf7565b946020939093013593505050565b600080600060608486031215610d5257600080fd5b610d5b84610cf7565b9250610d6960208501610cf7565b929592945050506040919091013590565b600060208284031215610d8c57600080fd5b61052982610cf7565b60008060408385031215610da857600080fd5b610db183610cf7565b915060208301358015158114610dc657600080fd5b809150509250929050565b634e487b7160e01b600052604160045260246000fd5b60008060008060808587031215610dfd57600080fd5b610e0685610cf7565b9350610e1460208601610cf7565b925060408501359150606085013567ffffffffffffffff811115610e3757600080fd5b8501601f81018713610e4857600080fd5b803567ffffffffffffffff811115610e6257610e62610dd1565b604051601f8201601f19908116603f0116810167ffffffffffffffff81118282101715610e9157610e91610dd1565b604052818152828201602001891015610ea957600080fd5b8160208401602083013760006020838301015280935050505092959194509250565b60008060408385031215610ede57600080fd5b610ee783610cf7565b9150610ef560208401610cf7565b90509250929050565b600181811c90821680610f1257607f821691505b602082108103610f3257634e487b7160e01b600052602260045260246000fd5b50919050565b600060018201610f5857634e487b7160e01b600052601160045260246000fd5b5060010190565b60008351610f71818460208801610c7b565b835190830190610f85818360208801610c7b565b01949350505050565b6001600160a01b0385811682528416602082015260408101839052608060608201819052600090610fc190830184610c9f565b9695505050505050565b600060208284031215610fdd57600080fd5b815161052981610c4556fea264697066735822122029f3dd157c1d48cf97d128597506c9e6f9031c438f6e847c299e8a1772e054c864736f6c634300081a0033",
  "linkReferences": {},
  "deployedLinkReferences": {}
}