{
  "_format": "hh-sol-artifact-1",
  "contractName": "Generator",
  "sourceName": "contracts/generator.sol",
  "abi": [
    {
      "anonymous": false,
      "inputs": [
        {
          "indexed": true,
          "internalType": "address",
          "name": "creator",
          "type": "address"
        },
        {
          "indexed": true,
          "internalType": "address",
          "name": "tokenAddress",
          "type": "address"
        }
      ],
      "name": "ERC1155Created",
      "type": "event"
    },
    {
      "anonymous": false,
      "inputs": [
        {
          "indexed": true,
          "internalType": "address",
          "name": "creator",
          "type": "address"
        },
        {
          "indexed": true,
          "internalType": "address",
          "name": "tokenAddress",
          "type": "address"
        }
      ],
      "name": "ERC20Created",
      "type": "event"
    },
    {
      "anonymous": false,
      "inputs": [
        {
          "indexed": true,
          "internalType": "address",
          "name": "creator",
          "type": "address"
        },
        {
          "indexed": true,
          "internalType": "address",
          "name": "tokenAddress",
          "type": "address"
        }
      ],
      "name": "ERC721Created",
      "type": "event"
    },
    {
      "inputs": [
        {
          "internalType": "address",
          "name": "to",
          "type": "address"
        },
        {
          "internalType": "string",
          "name": "tokenName",
          "type": "string"
        },
        {
          "internalType": "string",
          "name": "tokenSymbol",
          "type": "string"
        },
        {
          "internalType": "uint256",
          "name": "mintAmount",
          "type": "uint256"
        },
        {
          "internalType": "string",
          "name": "baseURI_",
          "type": "string"
        },
        {
          "internalType": "bytes",
          "name": "data",
          "type": "bytes"
        }
      ],
      "name": "createERC1155",
      "outputs": [],
      "stateMutability": "nonpayable",
      "type": "function"
    },
    {
      "inputs": [
        {
          "internalType": "address",
          "name": "to",
          "type": "address"
        },
        {
          "internalType": "string",
          "name": "tokenName",
          "type": "string"
        },
        {
          "internalType": "string",
          "name": "tokenSymbol",
          "type": "string"
        },
        {
          "internalType": "uint256",
          "name": "preMintAmount",
          "type": "uint256"
        }
      ],
      "name": "createERC20",
      "outputs": [],
      "stateMutability": "nonpayable",
      "type": "function"
    },
    {
      "inputs": [
        {
          "internalType": "address",
          "name": "to",
          "type": "address"
        },
        {
          "internalType": "string",
          "name": "tokenName",
          "type": "string"
        },
        {
          "internalType": "string",
          "name": "tokenSymbol",
          "type": "string"
        },
        {
          "internalType": "uint256",
          "name": "mintAmount",
          "type": "uint256"
        },
        {
          "internalType": "string",
          "name": "baseURI_",
          "type": "string"
        }
      ],
      "name": "createERC721",
      "outputs": [],
      "stateMutability": "nonpayable",
      "type": "function"
    },
    {
      "inputs": [],
      "name": "getUserContracts",
      "outputs": [
        {
          "internalType": "address[]",
          "name": "",
          "type": "address[]"
        }
      ],
      "stateMutability": "view",
      "type": "function"
    },
    {
      "inputs": [
        {
          "internalType": "address",
          "name": "",
          "type": "address"
        },
        {
          "internalType": "uint256",
          "name": "",
          "type": "uint256"
        }
      ],
      "name": "userContracts",
      "outputs": [
        {
          "internalType": "address",
          "name": "",
          "type": "address"
        }
      ],
      "stateMutability": "view",
      "type": "function"
    }
  ],
  "bytecode": "0x6080604052348015600f57600080fd5b506158a88061001f6000396000f3fe608060405234801561001057600080fd5b50600436106100575760003560e01c80630655bee91461005c578063b5bf2cc714610071578063b789003d14610084578063dfc41f44146100b4578063ff646486146100c9575b600080fd5b61006f61006a36600461047f565b6100dc565b005b61006f61007f36600461052e565b61018d565b6100976100923660046105af565b61023b565b6040516001600160a01b0390911681526020015b60405180910390f35b6100bc610273565b6040516100ab91906105d9565b61006f6100d7366004610625565b6102dc565b600085858585856040516100ef90610390565b6100fd959493929190610744565b604051809103906000f080158015610119573d6000803e3d6000fd5b5033600081815260208181526040808320805460018101825590845291832090910180546001600160a01b0319166001600160a01b038616908117909155905193945084939092917ff080e589a49942bdb301617e222a6e18dbc34429e147b1e114f99aae1c0f308a91a350505050505050565b60008484848460405161019f9061039d565b6101ac94939291906107a0565b604051809103906000f0801580156101c8573d6000803e3d6000fd5b5033600081815260208181526040808320805460018101825590845291832090910180546001600160a01b0319166001600160a01b038616908117909155905193945084939092917f85e892981b234101136bc30081e0a5c44345bebc0940193230c20a43b279e2d191a3505050505050565b6000602052816000526040600020818154811061025757600080fd5b6000918252602090912001546001600160a01b03169150829050565b33600090815260208181526040918290208054835181840281018401909452808452606093928301828280156102d257602002820191906000526020600020905b81546001600160a01b031681526001909101906020018083116102b4575b5050505050905090565b60008686868686866040516102f0906103aa565b6102ff969594939291906107e8565b604051809103906000f08015801561031b573d6000803e3d6000fd5b5033600081815260208181526040808320805460018101825590845291832090910180546001600160a01b0319166001600160a01b038616908117909155905193945084939092917f7192d7c1a7c7914e1e82105dd5dcd5bdf88dc7eb0c2899d498664be8f0e406c591a35050505050505050565b6119538061085a83390190565b6117c1806121ad83390190565b611f058061396e83390190565b80356001600160a01b03811681146103ce57600080fd5b919050565b634e487b7160e01b600052604160045260246000fd5b600082601f8301126103fa57600080fd5b81356020830160008067ffffffffffffffff84111561041b5761041b6103d3565b50604051601f19601f85018116603f0116810181811067ffffffffffffffff8211171561044a5761044a6103d3565b60405283815290508082840187101561046257600080fd5b838360208301376000602085830101528094505050505092915050565b600080600080600060a0868803121561049757600080fd5b6104a0866103b7565b9450602086013567ffffffffffffffff8111156104bc57600080fd5b6104c8888289016103e9565b945050604086013567ffffffffffffffff8111156104e557600080fd5b6104f1888289016103e9565b93505060608601359150608086013567ffffffffffffffff81111561051557600080fd5b610521888289016103e9565b9150509295509295909350565b6000806000806080858703121561054457600080fd5b61054d856103b7565b9350602085013567ffffffffffffffff81111561056957600080fd5b610575878288016103e9565b935050604085013567ffffffffffffffff81111561059257600080fd5b61059e878288016103e9565b949793965093946060013593505050565b600080604083850312156105c257600080fd5b6105cb836103b7565b946020939093013593505050565b602080825282518282018190526000918401906040840190835b8181101561061a5783516001600160a01b03168352602093840193909201916001016105f3565b509095945050505050565b60008060008060008060c0878903121561063e57600080fd5b610647876103b7565b9550602087013567ffffffffffffffff81111561066357600080fd5b61066f89828a016103e9565b955050604087013567ffffffffffffffff81111561068c57600080fd5b61069889828a016103e9565b94505060608701359250608087013567ffffffffffffffff8111156106bc57600080fd5b6106c889828a016103e9565b92505060a087013567ffffffffffffffff8111156106e557600080fd5b6106f189828a016103e9565b9150509295509295509295565b6000815180845260005b8181101561072457602081850181015186830182015201610708565b506000602082860101526020601f19601f83011685010191505092915050565b6001600160a01b038616815260a060208201819052600090610768908301876106fe565b828103604084015261077a81876106fe565b9050846060840152828103608084015261079481856106fe565b98975050505050505050565b6001600160a01b03851681526080602082018190526000906107c4908301866106fe565b82810360408401526107d681866106fe565b91505082606083015295945050505050565b6001600160a01b038716815260c06020820181905260009061080c908301886106fe565b828103604084015261081e81886106fe565b9050856060840152828103608084015261083881866106fe565b905082810360a084015261084c81856106fe565b999850505050505050505056fe608060405234801561001057600080fd5b5060405161195338038061195383398101604081905261002f91610678565b8383600061003d83826107b8565b50600161004a82826107b8565b506007915061005b905082826107b8565b5060005b828110156100785761007086610083565b60010161005f565b505050505050610926565b600680546000918261009483610876565b9091555090506100a482826100a8565b5050565b6100a48282604051806020016040528060008152506100c860201b60201c565b6100d283836100e4565b6100df600084848461014d565b505050565b6001600160a01b03821661011357604051633250574960e11b8152600060048201526024015b60405180910390fd5b6000610120838383610277565b90506001600160a01b038116156100df576040516339e3563760e11b81526000600482015260240161010a565b6001600160a01b0383163b1561027157604051630a85bd0160e11b81526001600160a01b0384169063150b7a029061018f90339088908790879060040161089d565b6020604051808303816000875af19250505080156101ca575060408051601f3d908101601f191682019092526101c7918101906108f5565b60015b610233573d8080156101f8576040519150601f19603f3d011682016040523d82523d6000602084013e6101fd565b606091505b50805160000361022b57604051633250574960e11b81526001600160a01b038516600482015260240161010a565b805181602001fd5b6001600160e01b03198116630a85bd0160e11b1461026f57604051633250574960e11b81526001600160a01b038516600482015260240161010a565b505b50505050565b6000828152600260205260408120546001600160a01b03908116908316156102a4576102a481848661036f565b6001600160a01b038116156102e1576102c060008581806103d3565b6001600160a01b038116600090815260036020526040902080546000190190555b6001600160a01b03851615610310576001600160a01b0385166000908152600360205260409020805460010190555b60008481526002602052604080822080546001600160a01b0319166001600160a01b0389811691821790925591518793918516917fddf252ad1be2c89b69c2b068fc378daa952ba7f163c4a11628f55a4df523b3ef91a4949350505050565b61037a8383836104f8565b6100df576001600160a01b0383166103a857604051637e27328960e01b81526004810182905260240161010a565b60405163177e802f60e01b81526001600160a01b03831660048201526024810182905260440161010a565b80806103e757506001600160a01b03821615155b156104c85760006103f78461057e565b90506001600160a01b038316158015906104235750826001600160a01b0316816001600160a01b031614155b801561045557506001600160a01b0380821660009081526005602090815260408083209387168352929052205460ff16155b1561047e5760405163a9fbf51f60e01b81526001600160a01b038416600482015260240161010a565b81156104c65783856001600160a01b0316826001600160a01b03167f8c5be1e5ebec7d5bd14f71427d1e84f3dd0314c0f7b2291e5b200ac8c7c3b92560405160405180910390a45b505b5050600090815260046020526040902080546001600160a01b0319166001600160a01b0392909216919091179055565b60006001600160a01b038316158015906105765750826001600160a01b0316846001600160a01b0316148061055257506001600160a01b0380851660009081526005602090815260408083209387168352929052205460ff165b8061057657506000828152600460205260409020546001600160a01b038481169116145b949350505050565b6000818152600260205260408120546001600160a01b0316806105b757604051637e27328960e01b81526004810184905260240161010a565b92915050565b634e487b7160e01b600052604160045260246000fd5b60005b838110156105ee5781810151838201526020016105d6565b50506000910152565b600082601f83011261060857600080fd5b81516001600160401b03811115610621576106216105bd565b604051601f8201601f19908116603f011681016001600160401b038111828210171561064f5761064f6105bd565b60405281815283820160200185101561066757600080fd5b6105768260208301602087016105d3565b600080600080600060a0868803121561069057600080fd5b85516001600160a01b03811681146106a757600080fd5b60208701519095506001600160401b038111156106c357600080fd5b6106cf888289016105f7565b604088015190955090506001600160401b038111156106ed57600080fd5b6106f9888289016105f7565b60608801516080890151919550935090506001600160401b0381111561071e57600080fd5b61072a888289016105f7565b9150509295509295909350565b600181811c9082168061074b57607f821691505b60208210810361076b57634e487b7160e01b600052602260045260246000fd5b50919050565b601f8211156100df57806000526020600020601f840160051c810160208510156107985750805b601f840160051c820191505b8181101561026f57600081556001016107a4565b81516001600160401b038111156107d1576107d16105bd565b6107e5816107df8454610737565b84610771565b6020601f82116001811461081957600083156108015750848201515b600019600385901b1c1916600184901b17845561026f565b600084815260208120601f198516915b828110156108495787850151825560209485019460019092019101610829565b50848210156108675786840151600019600387901b60f8161c191681555b50505050600190811b01905550565b60006001820161089657634e487b7160e01b600052601160045260246000fd5b5060010190565b60018060a01b038516815260018060a01b038416602082015282604082015260806060820152600082518060808401526108de8160a08501602087016105d3565b601f01601f19169190910160a00195945050505050565b60006020828403121561090757600080fd5b81516001600160e01b03198116811461091f57600080fd5b9392505050565b61101e806109356000396000f3fe608060405234801561001057600080fd5b50600436106100f55760003560e01c806342966c6811610097578063a22cb46511610066578063a22cb465146101ff578063b88d4fde14610212578063c87b56dd14610225578063e985e9c51461023857600080fd5b806342966c68146101b05780636352211e146101c357806370a08231146101d657806395d89b41146101f757600080fd5b8063095ea7b3116100d3578063095ea7b31461016257806323b872dd1461017757806340d097c31461018a57806342842e0e1461019d57600080fd5b806301ffc9a7146100fa57806306fdde0314610122578063081812fc14610137575b600080fd5b61010d610108366004610c5e565b61024b565b60405190151581526020015b60405180910390f35b61012a61029d565b6040516101199190610ccb565b61014a610145366004610cde565b61032f565b6040516001600160a01b039091168152602001610119565b610175610170366004610d13565b610358565b005b610175610185366004610d3d565b610367565b610175610198366004610d7a565b6103f7565b6101756101ab366004610d3d565b610418565b6101756101be366004610cde565b610438565b61014a6101d1366004610cde565b610444565b6101e96101e4366004610d7a565b61044f565b604051908152602001610119565b61012a610497565b61017561020d366004610d95565b6104a6565b610175610220366004610de7565b6104b1565b61012a610233366004610cde565b6104c8565b61010d610246366004610ecb565b610530565b60006001600160e01b031982166380ac58cd60e01b148061027c57506001600160e01b03198216635b5e139f60e01b145b8061029757506301ffc9a760e01b6001600160e01b03198316145b92915050565b6060600080546102ac90610efe565b80601f01602080910402602001604051908101604052809291908181526020018280546102d890610efe565b80156103255780601f106102fa57610100808354040283529160200191610325565b820191906000526020600020905b81548152906001019060200180831161030857829003601f168201915b5050505050905090565b600061033a8261055e565b506000828152600460205260409020546001600160a01b0316610297565b610363828233610597565b5050565b6001600160a01b03821661039657604051633250574960e11b8152600060048201526024015b60405180910390fd5b60006103a38383336105a4565b9050836001600160a01b0316816001600160a01b0316146103f1576040516364283d7b60e01b81526001600160a01b038086166004830152602482018490528216604482015260640161038d565b50505050565b600680546000918261040883610f38565b919050559050610363828261069d565b610433838383604051806020016040528060008152506104b1565b505050565b610363600082336105a4565b60006102978261055e565b60006001600160a01b03821661047b576040516322718ad960e21b81526000600482015260240161038d565b506001600160a01b031660009081526003602052604090205490565b6060600180546102ac90610efe565b6103633383836106b7565b6104bc848484610367565b6103f184848484610756565b60606104d38261055e565b5060006104de61087f565b905060008151116104fe5760405180602001604052806000815250610529565b806105088461088e565b604051602001610519929190610f5f565b6040516020818303038152906040525b9392505050565b6001600160a01b03918216600090815260056020908152604080832093909416825291909152205460ff1690565b6000818152600260205260408120546001600160a01b03168061029757604051637e27328960e01b81526004810184905260240161038d565b6104338383836001610921565b6000828152600260205260408120546001600160a01b03908116908316156105d1576105d1818486610a27565b6001600160a01b0381161561060f576105ee600085600080610921565b6001600160a01b038116600090815260036020526040902080546000190190555b6001600160a01b0385161561063e576001600160a01b0385166000908152600360205260409020805460010190555b60008481526002602052604080822080546001600160a01b0319166001600160a01b0389811691821790925591518793918516917fddf252ad1be2c89b69c2b068fc378daa952ba7f163c4a11628f55a4df523b3ef91a4949350505050565b610363828260405180602001604052806000815250610a8b565b6001600160a01b0382166106e957604051630b61174360e31b81526001600160a01b038316600482015260240161038d565b6001600160a01b03838116600081815260056020908152604080832094871680845294825291829020805460ff191686151590811790915591519182527f17307eab39ab6107e8899845ad3d59bd9653f200f220920489ca2b5937696c31910160405180910390a3505050565b6001600160a01b0383163b156103f157604051630a85bd0160e11b81526001600160a01b0384169063150b7a0290610798903390889087908790600401610f8e565b6020604051808303816000875af19250505080156107d3575060408051601f3d908101601f191682019092526107d091810190610fcb565b60015b61083c573d808015610801576040519150601f19603f3d011682016040523d82523d6000602084013e610806565b606091505b50805160000361083457604051633250574960e11b81526001600160a01b038516600482015260240161038d565b805181602001fd5b6001600160e01b03198116630a85bd0160e11b1461087857604051633250574960e11b81526001600160a01b038516600482015260240161038d565b5050505050565b6060600780546102ac90610efe565b6060600061089b83610aa2565b600101905060008167ffffffffffffffff8111156108bb576108bb610dd1565b6040519080825280601f01601f1916602001820160405280156108e5576020820181803683370190505b5090508181016020015b600019016f181899199a1a9b1b9c1cb0b131b232b360811b600a86061a8153600a85049450846108ef57509392505050565b808061093557506001600160a01b03821615155b156109f75760006109458461055e565b90506001600160a01b038316158015906109715750826001600160a01b0316816001600160a01b031614155b801561098457506109828184610530565b155b156109ad5760405163a9fbf51f60e01b81526001600160a01b038416600482015260240161038d565b81156109f55783856001600160a01b0316826001600160a01b03167f8c5be1e5ebec7d5bd14f71427d1e84f3dd0314c0f7b2291e5b200ac8c7c3b92560405160405180910390a45b505b5050600090815260046020526040902080546001600160a01b0319166001600160a01b0392909216919091179055565b610a32838383610b7a565b610433576001600160a01b038316610a6057604051637e27328960e01b81526004810182905260240161038d565b60405163177e802f60e01b81526001600160a01b03831660048201526024810182905260440161038d565b610a958383610be0565b6104336000848484610756565b60008072184f03e93ff9f4daa797ed6e38ed64bf6a1f0160401b8310610ae15772184f03e93ff9f4daa797ed6e38ed64bf6a1f0160401b830492506040015b6d04ee2d6d415b85acef81000000008310610b0d576d04ee2d6d415b85acef8100000000830492506020015b662386f26fc100008310610b2b57662386f26fc10000830492506010015b6305f5e1008310610b43576305f5e100830492506008015b6127108310610b5757612710830492506004015b60648310610b69576064830492506002015b600a83106102975760010192915050565b60006001600160a01b03831615801590610bd85750826001600160a01b0316846001600160a01b03161480610bb45750610bb48484610530565b80610bd857506000828152600460205260409020546001600160a01b038481169116145b949350505050565b6001600160a01b038216610c0a57604051633250574960e11b81526000600482015260240161038d565b6000610c18838360006105a4565b90506001600160a01b03811615610433576040516339e3563760e11b81526000600482015260240161038d565b6001600160e01b031981168114610c5b57600080fd5b50565b600060208284031215610c7057600080fd5b813561052981610c45565b60005b83811015610c96578181015183820152602001610c7e565b50506000910152565b60008151808452610cb7816020860160208601610c7b565b601f01601f19169290920160200192915050565b6020815260006105296020830184610c9f565b600060208284031215610cf057600080fd5b5035919050565b80356001600160a01b0381168114610d0e57600080fd5b919050565b60008060408385031215610d2657600080fd5b610d2f83610cf7565b946020939093013593505050565b600080600060608486031215610d5257600080fd5b610d5b84610cf7565b9250610d6960208501610cf7565b929592945050506040919091013590565b600060208284031215610d8c57600080fd5b61052982610cf7565b60008060408385031215610da857600080fd5b610db183610cf7565b915060208301358015158114610dc657600080fd5b809150509250929050565b634e487b7160e01b600052604160045260246000fd5b60008060008060808587031215610dfd57600080fd5b610e0685610cf7565b9350610e1460208601610cf7565b925060408501359150606085013567ffffffffffffffff811115610e3757600080fd5b8501601f81018713610e4857600080fd5b803567ffffffffffffffff811115610e6257610e62610dd1565b604051601f8201601f19908116603f0116810167ffffffffffffffff81118282101715610e9157610e91610dd1565b604052818152828201602001891015610ea957600080fd5b8160208401602083013760006020838301015280935050505092959194509250565b60008060408385031215610ede57600080fd5b610ee783610cf7565b9150610ef560208401610cf7565b90509250929050565b600181811c90821680610f1257607f821691505b602082108103610f3257634e487b7160e01b600052602260045260246000fd5b50919050565b600060018201610f5857634e487b7160e01b600052601160045260246000fd5b5060010190565b60008351610f71818460208801610c7b565b835190830190610f85818360208801610c7b565b01949350505050565b6001600160a01b0385811682528416602082015260408101839052608060608201819052600090610fc190830184610c9f565b9695505050505050565b600060208284031215610fdd57600080fd5b815161052981610c4556fea264697066735822122029f3dd157c1d48cf97d128597506c9e6f9031c438f6e847c299e8a1772e054c864736f6c634300081a003361016060405234801561001157600080fd5b506040516117c13803806117c1833981016040819052610030916103e2565b6040805180820190915260018152603160f81b6020820152839081908185600361005a83826104fb565b50600461006782826104fb565b5061007791508390506005610145565b61012052610086816006610145565b61014052815160208084019190912060e052815190820120610100524660a05261011360e05161010051604080517f8b73c3c69bb8fe3d512ecc4cf759cc79239f7b179b0ffacaa9a75d522b39400f60208201529081019290925260608201524660808201523060a082015260009060c00160405160208183030381529060405280519060200120905090565b60805250503060c0525061013c8461012d6012600a6106b6565b61013790846106cc565b610178565b5050505061074d565b60006020835110156101615761015a836101b7565b9050610172565b8161016c84826104fb565b5060ff90505b92915050565b6001600160a01b0382166101a75760405163ec442f0560e01b8152600060048201526024015b60405180910390fd5b6101b3600083836101f5565b5050565b600080829050601f815111156101e2578260405163305a27a960e01b815260040161019e91906106e3565b80516101ed82610716565b179392505050565b6001600160a01b038316610220578060026000828254610215919061073a565b909155506102929050565b6001600160a01b038316600090815260208190526040902054818110156102735760405163391434e360e21b81526001600160a01b0385166004820152602481018290526044810183905260640161019e565b6001600160a01b03841660009081526020819052604090209082900390555b6001600160a01b0382166102ae576002805482900390556102cd565b6001600160a01b03821660009081526020819052604090208054820190555b816001600160a01b0316836001600160a01b03167fddf252ad1be2c89b69c2b068fc378daa952ba7f163c4a11628f55a4df523b3ef8360405161031291815260200190565b60405180910390a3505050565b634e487b7160e01b600052604160045260246000fd5b60005b83811015610350578181015183820152602001610338565b50506000910152565b600082601f83011261036a57600080fd5b81516001600160401b038111156103835761038361031f565b604051601f8201601f19908116603f011681016001600160401b03811182821017156103b1576103b161031f565b6040528181528382016020018510156103c957600080fd5b6103da826020830160208701610335565b949350505050565b600080600080608085870312156103f857600080fd5b84516001600160a01b038116811461040f57600080fd5b60208601519094506001600160401b0381111561042b57600080fd5b61043787828801610359565b604087015190945090506001600160401b0381111561045557600080fd5b61046187828801610359565b606096909601519497939650505050565b600181811c9082168061048657607f821691505b6020821081036104a657634e487b7160e01b600052602260045260246000fd5b50919050565b601f8211156104f657806000526020600020601f840160051c810160208510156104d35750805b601f840160051c820191505b818110156104f357600081556001016104df565b50505b505050565b81516001600160401b038111156105145761051461031f565b610528816105228454610472565b846104ac565b6020601f82116001811461055c57600083156105445750848201515b600019600385901b1c1916600184901b1784556104f3565b600084815260208120601f198516915b8281101561058c578785015182556020948501946001909201910161056c565b50848210156105aa5786840151600019600387901b60f8161c191681555b50505050600190811b01905550565b634e487b7160e01b600052601160045260246000fd5b6001815b600184111561060a578085048111156105ee576105ee6105b9565b60018416156105fc57908102905b60019390931c9280026105d3565b935093915050565b60008261062157506001610172565b8161062e57506000610172565b8160018114610644576002811461064e5761066a565b6001915050610172565b60ff84111561065f5761065f6105b9565b50506001821b610172565b5060208310610133831016604e8410600b841016171561068d575081810a610172565b61069a60001984846105cf565b80600019048211156106ae576106ae6105b9565b029392505050565b60006106c560ff841683610612565b9392505050565b8082028115828204841417610172576101726105b9565b6020815260008251806020840152610702816040850160208701610335565b601f01601f19169190910160400192915050565b805160208083015191908110156104a65760001960209190910360031b1b16919050565b80820180821115610172576101726105b9565b60805160a05160c05160e05161010051610120516101405161101a6107a76000396000610804015260006107d701526000610713015260006106eb01526000610646015260006106700152600061069a015261101a6000f3fe608060405234801561001057600080fd5b50600436106101005760003560e01c806370a082311161009757806395d89b411161006657806395d89b4114610214578063a9059cbb1461021c578063d505accf1461022f578063dd62ed3e1461024257600080fd5b806370a08231146101aa57806379cc6790146101d35780637ecebe00146101e657806384b0196e146101f957600080fd5b8063313ce567116100d3578063313ce5671461016b5780633644e5151461017a57806340c10f191461018257806342966c681461019757600080fd5b806306fdde0314610105578063095ea7b31461012357806318160ddd1461014657806323b872dd14610158575b600080fd5b61010d61027b565b60405161011a9190610d64565b60405180910390f35b610136610131366004610d9a565b61030d565b604051901515815260200161011a565b6002545b60405190815260200161011a565b610136610166366004610dc4565b610327565b6040516012815260200161011a565b61014a61034b565b610195610190366004610d9a565b61035a565b005b6101956101a5366004610e01565b610368565b61014a6101b8366004610e1a565b6001600160a01b031660009081526020819052604090205490565b6101956101e1366004610d9a565b610375565b61014a6101f4366004610e1a565b61038a565b6102016103a8565b60405161011a9796959493929190610e35565b61010d6103ee565b61013661022a366004610d9a565b6103fd565b61019561023d366004610ecd565b61040b565b61014a610250366004610f40565b6001600160a01b03918216600090815260016020908152604080832093909416825291909152205490565b60606003805461028a90610f73565b80601f01602080910402602001604051908101604052809291908181526020018280546102b690610f73565b80156103035780601f106102d857610100808354040283529160200191610303565b820191906000526020600020905b8154815290600101906020018083116102e657829003601f168201915b5050505050905090565b60003361031b81858561054a565b60019150505b92915050565b60003361033585828561055c565b6103408585856105da565b506001949350505050565b6000610355610639565b905090565b6103648282610764565b5050565b610372338261079a565b50565b61038082338361055c565b610364828261079a565b6001600160a01b038116600090815260076020526040812054610321565b6000606080600080600060606103bc6107d0565b6103c46107fd565b60408051600080825260208201909252600f60f81b9b939a50919850469750309650945092509050565b60606004805461028a90610f73565b60003361031b8185856105da565b834211156104345760405163313c898160e11b8152600481018590526024015b60405180910390fd5b60007f6e71edae12b1b97f4d1f60370fef10105fa2faae0126114a169c64845d6126c98888886104818c6001600160a01b0316600090815260076020526040902080546001810190915590565b6040805160208101969096526001600160a01b0394851690860152929091166060840152608083015260a082015260c0810186905260e00160405160208183030381529060405280519060200120905060006104dc8261082a565b905060006104ec82878787610857565b9050896001600160a01b0316816001600160a01b031614610533576040516325c0072360e11b81526001600160a01b0380831660048301528b16602482015260440161042b565b61053e8a8a8a61054a565b50505050505050505050565b6105578383836001610885565b505050565b6001600160a01b0383811660009081526001602090815260408083209386168352929052205460001981146105d457818110156105c557604051637dc7a0d960e11b81526001600160a01b0384166004820152602481018290526044810183905260640161042b565b6105d484848484036000610885565b50505050565b6001600160a01b03831661060457604051634b637e8f60e11b81526000600482015260240161042b565b6001600160a01b03821661062e5760405163ec442f0560e01b81526000600482015260240161042b565b61055783838361095a565b6000306001600160a01b037f00000000000000000000000000000000000000000000000000000000000000001614801561069257507f000000000000000000000000000000000000000000000000000000000000000046145b156106bc57507f000000000000000000000000000000000000000000000000000000000000000090565b610355604080517f8b73c3c69bb8fe3d512ecc4cf759cc79239f7b179b0ffacaa9a75d522b39400f60208201527f0000000000000000000000000000000000000000000000000000000000000000918101919091527f000000000000000000000000000000000000000000000000000000000000000060608201524660808201523060a082015260009060c00160405160208183030381529060405280519060200120905090565b6001600160a01b03821661078e5760405163ec442f0560e01b81526000600482015260240161042b565b6103646000838361095a565b6001600160a01b0382166107c457604051634b637e8f60e11b81526000600482015260240161042b565b6103648260008361095a565b60606103557f00000000000000000000000000000000000000000000000000000000000000006005610a84565b60606103557f00000000000000000000000000000000000000000000000000000000000000006006610a84565b6000610321610837610639565b8360405161190160f01b8152600281019290925260228201526042902090565b60008060008061086988888888610b2f565b9250925092506108798282610bfe565b50909695505050505050565b6001600160a01b0384166108af5760405163e602df0560e01b81526000600482015260240161042b565b6001600160a01b0383166108d957604051634a1406b160e11b81526000600482015260240161042b565b6001600160a01b03808516600090815260016020908152604080832093871683529290522082905580156105d457826001600160a01b0316846001600160a01b03167f8c5be1e5ebec7d5bd14f71427d1e84f3dd0314c0f7b2291e5b200ac8c7c3b9258460405161094c91815260200190565b60405180910390a350505050565b6001600160a01b03831661098557806002600082825461097a9190610fad565b909155506109f79050565b6001600160a01b038316600090815260208190526040902054818110156109d85760405163391434e360e21b81526001600160a01b0385166004820152602481018290526044810183905260640161042b565b6001600160a01b03841660009081526020819052604090209082900390555b6001600160a01b038216610a1357600280548290039055610a32565b6001600160a01b03821660009081526020819052604090208054820190555b816001600160a01b0316836001600160a01b03167fddf252ad1be2c89b69c2b068fc378daa952ba7f163c4a11628f55a4df523b3ef83604051610a7791815260200190565b60405180910390a3505050565b606060ff8314610a9e57610a9783610cb7565b9050610321565b818054610aaa90610f73565b80601f0160208091040260200160405190810160405280929190818152602001828054610ad690610f73565b8015610b235780601f10610af857610100808354040283529160200191610b23565b820191906000526020600020905b815481529060010190602001808311610b0657829003601f168201915b50505050509050610321565b600080807f7fffffffffffffffffffffffffffffff5d576e7357a4501ddfe92f46681b20a0841115610b6a5750600091506003905082610bf4565b604080516000808252602082018084528a905260ff891692820192909252606081018790526080810186905260019060a0016020604051602081039080840390855afa158015610bbe573d6000803e3d6000fd5b5050604051601f1901519150506001600160a01b038116610bea57506000925060019150829050610bf4565b9250600091508190505b9450945094915050565b6000826003811115610c1257610c12610fce565b03610c1b575050565b6001826003811115610c2f57610c2f610fce565b03610c4d5760405163f645eedf60e01b815260040160405180910390fd5b6002826003811115610c6157610c61610fce565b03610c825760405163fce698f760e01b81526004810182905260240161042b565b6003826003811115610c9657610c96610fce565b03610364576040516335e2f38360e21b81526004810182905260240161042b565b60606000610cc483610cf6565b604080516020808252818301909252919250600091906020820181803683375050509182525060208101929092525090565b600060ff8216601f81111561032157604051632cd44ac360e21b815260040160405180910390fd5b6000815180845260005b81811015610d4457602081850181015186830182015201610d28565b506000602082860101526020601f19601f83011685010191505092915050565b602081526000610d776020830184610d1e565b9392505050565b80356001600160a01b0381168114610d9557600080fd5b919050565b60008060408385031215610dad57600080fd5b610db683610d7e565b946020939093013593505050565b600080600060608486031215610dd957600080fd5b610de284610d7e565b9250610df060208501610d7e565b929592945050506040919091013590565b600060208284031215610e1357600080fd5b5035919050565b600060208284031215610e2c57600080fd5b610d7782610d7e565b60ff60f81b8816815260e060208201526000610e5460e0830189610d1e565b8281036040840152610e668189610d1e565b606084018890526001600160a01b038716608085015260a0840186905283810360c08501528451808252602080870193509091019060005b81811015610ebc578351835260209384019390920191600101610e9e565b50909b9a5050505050505050505050565b600080600080600080600060e0888a031215610ee857600080fd5b610ef188610d7e565b9650610eff60208901610d7e565b95506040880135945060608801359350608088013560ff81168114610f2357600080fd5b9699959850939692959460a0840135945060c09093013592915050565b60008060408385031215610f5357600080fd5b610f5c83610d7e565b9150610f6a60208401610d7e565b90509250929050565b600181811c90821680610f8757607f821691505b602082108103610fa757634e487b7160e01b600052602260045260246000fd5b50919050565b8082018082111561032157634e487b7160e01b600052601160045260246000fd5b634e487b7160e01b600052602160045260246000fdfea2646970667358221220d4c64c4c71be27684be5d19480b43333174ba38afe089495f5c463e8508eb73564736f6c634300081a0033608060405234801561001057600080fd5b50604051611f05380380611f0583398101604081905261002f91610661565b816100398161006c565b50610047866001858461007c565b600361005386826107c3565b50600461006085826107c3565b50505050505050610a12565b600261007882826107c3565b5050565b6100888484848461008e565b50505050565b6001600160a01b0384166100bd57604051632bfa23e760e11b8152600060048201526024015b60405180910390fd5b604080516001808252602082018690528183019081526060820185905260808201909252906100f06000878484876100f8565b505050505050565b61010485858585610152565b6001600160a01b0384161561014b578251339060010361013d5760208481015190840151610136838989858589610366565b50506100f0565b6100f0818787878787610493565b5050505050565b80518251146101815781518151604051635b05999160e01b8152600481019290925260248201526044016100b4565b3360005b8351811015610287576020818102858101820151908501909101516001600160a01b03881615610238576000828152602081815260408083206001600160a01b038c16845290915290205481811015610211576040516303dee4c560e01b81526001600160a01b038a1660048201526024810182905260448101839052606481018490526084016100b4565b6000838152602081815260408083206001600160a01b038d16845290915290209082900390555b6001600160a01b0387161561027d576000828152602081815260408083206001600160a01b038b16845290915281208054839290610277908490610881565b90915550505b5050600101610185565b5082516001036103085760208301516000906020840151909150856001600160a01b0316876001600160a01b0316846001600160a01b03167fc3d58168c5ae7397731d063d5bbf3d657854427343f4c083240f7aacaa2d0f6285856040516102f9929190918252602082015260400190565b60405180910390a4505061014b565b836001600160a01b0316856001600160a01b0316826001600160a01b03167f4a39dc06d4c0dbc64b70af90fd698a233a518aa5d07e595d983b8c0526c8f7fb86866040516103579291906108e4565b60405180910390a45050505050565b6001600160a01b0384163b156100f05760405163f23a6e6160e01b81526001600160a01b0385169063f23a6e61906103aa908990899088908890889060040161093e565b6020604051808303816000875af19250505080156103e5575060408051601f3d908101601f191682019092526103e291810190610983565b60015b61044e573d808015610413576040519150601f19603f3d011682016040523d82523d6000602084013e610418565b606091505b50805160000361044657604051632bfa23e760e11b81526001600160a01b03861660048201526024016100b4565b805181602001fd5b6001600160e01b0319811663f23a6e6160e01b1461048a57604051632bfa23e760e11b81526001600160a01b03861660048201526024016100b4565b50505050505050565b6001600160a01b0384163b156100f05760405163bc197c8160e01b81526001600160a01b0385169063bc197c81906104d790899089908890889088906004016109b4565b6020604051808303816000875af1925050508015610512575060408051601f3d908101601f1916820190925261050f91810190610983565b60015b610540573d808015610413576040519150601f19603f3d011682016040523d82523d6000602084013e610418565b6001600160e01b0319811663bc197c8160e01b1461048a57604051632bfa23e760e11b81526001600160a01b03861660048201526024016100b4565b80516001600160a01b038116811461059357600080fd5b919050565b634e487b7160e01b600052604160045260246000fd5b60005b838110156105c95781810151838201526020016105b1565b50506000910152565b600082601f8301126105e357600080fd5b8151602083016000806001600160401b0384111561060357610603610598565b50604051601f19601f85018116603f011681018181106001600160401b038211171561063157610631610598565b60405283815290508082840187101561064957600080fd5b6106578460208301856105ae565b9695505050505050565b60008060008060008060c0878903121561067a57600080fd5b6106838761057c565b60208801519096506001600160401b0381111561069f57600080fd5b6106ab89828a016105d2565b604089015190965090506001600160401b038111156106c957600080fd5b6106d589828a016105d2565b606089015160808a0151919650945090506001600160401b038111156106fa57600080fd5b61070689828a016105d2565b60a089015190935090506001600160401b0381111561072457600080fd5b61073089828a016105d2565b9150509295509295509295565b600181811c9082168061075157607f821691505b60208210810361077157634e487b7160e01b600052602260045260246000fd5b50919050565b601f8211156107be57806000526020600020601f840160051c8101602085101561079e5750805b601f840160051c820191505b8181101561014b57600081556001016107aa565b505050565b81516001600160401b038111156107dc576107dc610598565b6107f0816107ea845461073d565b84610777565b6020601f821160018114610824576000831561080c5750848201515b600019600385901b1c1916600184901b17845561014b565b600084815260208120601f198516915b828110156108545787850151825560209485019460019092019101610834565b50848210156108725786840151600019600387901b60f8161c191681555b50505050600190811b01905550565b808201808211156108a257634e487b7160e01b600052601160045260246000fd5b92915050565b600081518084526020840193506020830160005b828110156108da5781518652602095860195909101906001016108bc565b5093949350505050565b6040815260006108f760408301856108a8565b828103602084015261090981856108a8565b95945050505050565b6000815180845261092a8160208601602086016105ae565b601f01601f19169290920160200192915050565b6001600160a01b03868116825285166020820152604081018490526060810183905260a06080820181905260009061097890830184610912565b979650505050505050565b60006020828403121561099557600080fd5b81516001600160e01b0319811681146109ad57600080fd5b9392505050565b6001600160a01b0386811682528516602082015260a0604082018190526000906109e0908301866108a8565b82810360608401526109f281866108a8565b90508281036080840152610a068185610912565b98975050505050505050565b6114e480610a216000396000f3fe608060405234801561001057600080fd5b50600436106100ce5760003560e01c80634e1273f41161008c5780637b61c320116100665780637b61c320146101b2578063a22cb465146101ba578063e985e9c5146101cd578063f242432a146101e057600080fd5b80634e1273f4146101775780636c02a93114610197578063731133e91461019f57600080fd5b8062fdd58e146100d357806301ffc9a7146100f957806302fe53051461011c5780630e89341c146101315780631f7fdffa146101515780632eb2c2d614610164575b600080fd5b6100e66100e1366004610c54565b6101f3565b6040519081526020015b60405180910390f35b61010c610107366004610c94565b61021b565b60405190151581526020016100f0565b61012f61012a366004610d59565b61026b565b005b61014461013f366004610da9565b610277565b6040516100f09190610e08565b61012f61015f366004610ecb565b61030b565b61012f610172366004610f6d565b61031d565b61018a610185366004611020565b610389565b6040516100f09190611123565b610144610455565b61012f6101ad366004611136565b6104e3565b6101446104ef565b61012f6101c836600461117e565b6104fc565b61010c6101db3660046111ba565b61050b565b61012f6101ee3660046111ed565b610539565b6000818152602081815260408083206001600160a01b03861684529091529020545b92915050565b60006001600160e01b03198216636cdb3d1360e11b148061024c57506001600160e01b031982166303a24d0760e21b145b8061021557506301ffc9a760e01b6001600160e01b0319831614610215565b61027481610598565b50565b60606002805461028690611245565b80601f01602080910402602001604051908101604052809291908181526020018280546102b290611245565b80156102ff5780601f106102d4576101008083540402835291602001916102ff565b820191906000526020600020905b8154815290600101906020018083116102e257829003601f168201915b50505050509050919050565b610317848484846105a4565b50505050565b336001600160a01b038616811480159061033e575061033c868261050b565b155b156103745760405163711bec9160e11b81526001600160a01b038083166004830152871660248201526044015b60405180910390fd5b61038186868686866105dc565b505050505050565b606081518351146103ba5781518351604051635b05999160e01b81526004810192909252602482015260440161036b565b600083516001600160401b038111156103d5576103d5610cb8565b6040519080825280602002602001820160405280156103fe578160200160208202803683370190505b50905060005b845181101561044d57602080820286010151610428906020808402870101516101f3565b82828151811061043a5761043a61127f565b6020908102919091010152600101610404565b509392505050565b6003805461046290611245565b80601f016020809104026020016040519081016040528092919081815260200182805461048e90611245565b80156104db5780601f106104b0576101008083540402835291602001916104db565b820191906000526020600020905b8154815290600101906020018083116104be57829003601f168201915b505050505081565b61031784848484610643565b6004805461046290611245565b6105073383836106a0565b5050565b6001600160a01b03918216600090815260016020908152604080832093909416825291909152205460ff1690565b336001600160a01b038616811480159061055a5750610558868261050b565b155b1561058b5760405163711bec9160e11b81526001600160a01b0380831660048301528716602482015260440161036b565b6103818686868686610736565b600261050782826112e1565b6001600160a01b0384166105ce57604051632bfa23e760e11b81526000600482015260240161036b565b6103176000858585856107c4565b6001600160a01b03841661060657604051632bfa23e760e11b81526000600482015260240161036b565b6001600160a01b03851661062f57604051626a0d4560e21b81526000600482015260240161036b565b61063c85858585856107c4565b5050505050565b6001600160a01b03841661066d57604051632bfa23e760e11b81526000600482015260240161036b565b604080516001808252602082018690528183019081526060820185905260808201909252906103816000878484876107c4565b6001600160a01b0382166106c95760405162ced3e160e81b81526000600482015260240161036b565b6001600160a01b03838116600081815260016020908152604080832094871680845294825291829020805460ff191686151590811790915591519182527f17307eab39ab6107e8899845ad3d59bd9653f200f220920489ca2b5937696c31910160405180910390a3505050565b6001600160a01b03841661076057604051632bfa23e760e11b81526000600482015260240161036b565b6001600160a01b03851661078957604051626a0d4560e21b81526000600482015260240161036b565b604080516001808252602082018690528183019081526060820185905260808201909252906107bb87878484876107c4565b50505050505050565b6107d085858585610817565b6001600160a01b0384161561063c57825133906001036108095760208481015190840151610802838989858589610a2b565b5050610381565b610381818787878787610b4f565b80518251146108465781518151604051635b05999160e01b81526004810192909252602482015260440161036b565b3360005b835181101561094c576020818102858101820151908501909101516001600160a01b038816156108fd576000828152602081815260408083206001600160a01b038c168452909152902054818110156108d6576040516303dee4c560e01b81526001600160a01b038a16600482015260248101829052604481018390526064810184905260840161036b565b6000838152602081815260408083206001600160a01b038d16845290915290209082900390555b6001600160a01b03871615610942576000828152602081815260408083206001600160a01b038b1684529091528120805483929061093c90849061139f565b90915550505b505060010161084a565b5082516001036109cd5760208301516000906020840151909150856001600160a01b0316876001600160a01b0316846001600160a01b03167fc3d58168c5ae7397731d063d5bbf3d657854427343f4c083240f7aacaa2d0f6285856040516109be929190918252602082015260400190565b60405180910390a4505061063c565b836001600160a01b0316856001600160a01b0316826001600160a01b03167f4a39dc06d4c0dbc64b70af90fd698a233a518aa5d07e595d983b8c0526c8f7fb8686604051610a1c9291906113c0565b60405180910390a45050505050565b6001600160a01b0384163b156103815760405163f23a6e6160e01b81526001600160a01b0385169063f23a6e6190610a6f90899089908890889088906004016113ee565b6020604051808303816000875af1925050508015610aaa575060408051601f3d908101601f19168201909252610aa791810190611433565b60015b610b13573d808015610ad8576040519150601f19603f3d011682016040523d82523d6000602084013e610add565b606091505b508051600003610b0b57604051632bfa23e760e11b81526001600160a01b038616600482015260240161036b565b805181602001fd5b6001600160e01b0319811663f23a6e6160e01b146107bb57604051632bfa23e760e11b81526001600160a01b038616600482015260240161036b565b6001600160a01b0384163b156103815760405163bc197c8160e01b81526001600160a01b0385169063bc197c8190610b939089908990889088908890600401611450565b6020604051808303816000875af1925050508015610bce575060408051601f3d908101601f19168201909252610bcb91810190611433565b60015b610bfc573d808015610ad8576040519150601f19603f3d011682016040523d82523d6000602084013e610add565b6001600160e01b0319811663bc197c8160e01b146107bb57604051632bfa23e760e11b81526001600160a01b038616600482015260240161036b565b80356001600160a01b0381168114610c4f57600080fd5b919050565b60008060408385031215610c6757600080fd5b610c7083610c38565b946020939093013593505050565b6001600160e01b03198116811461027457600080fd5b600060208284031215610ca657600080fd5b8135610cb181610c7e565b9392505050565b634e487b7160e01b600052604160045260246000fd5b604051601f8201601f191681016001600160401b0381118282101715610cf657610cf6610cb8565b604052919050565b6000806001600160401b03841115610d1857610d18610cb8565b50601f8301601f1916602001610d2d81610cce565b915050828152838383011115610d4257600080fd5b828260208301376000602084830101529392505050565b600060208284031215610d6b57600080fd5b81356001600160401b03811115610d8157600080fd5b8201601f81018413610d9257600080fd5b610da184823560208401610cfe565b949350505050565b600060208284031215610dbb57600080fd5b5035919050565b6000815180845260005b81811015610de857602081850181015186830182015201610dcc565b506000602082860101526020601f19601f83011685010191505092915050565b602081526000610cb16020830184610dc2565b60006001600160401b03821115610e3457610e34610cb8565b5060051b60200190565b600082601f830112610e4f57600080fd5b8135610e62610e5d82610e1b565b610cce565b8082825260208201915060208360051b860101925085831115610e8457600080fd5b602085015b83811015610ea1578035835260209283019201610e89565b5095945050505050565b600082601f830112610ebc57600080fd5b610cb183833560208501610cfe565b60008060008060808587031215610ee157600080fd5b610eea85610c38565b935060208501356001600160401b03811115610f0557600080fd5b610f1187828801610e3e565b93505060408501356001600160401b03811115610f2d57600080fd5b610f3987828801610e3e565b92505060608501356001600160401b03811115610f5557600080fd5b610f6187828801610eab565b91505092959194509250565b600080600080600060a08688031215610f8557600080fd5b610f8e86610c38565b9450610f9c60208701610c38565b935060408601356001600160401b03811115610fb757600080fd5b610fc388828901610e3e565b93505060608601356001600160401b03811115610fdf57600080fd5b610feb88828901610e3e565b92505060808601356001600160401b0381111561100757600080fd5b61101388828901610eab565b9150509295509295909350565b6000806040838503121561103357600080fd5b82356001600160401b0381111561104957600080fd5b8301601f8101851361105a57600080fd5b8035611068610e5d82610e1b565b8082825260208201915060208360051b85010192508783111561108a57600080fd5b6020840193505b828410156110b3576110a284610c38565b825260209384019390910190611091565b945050505060208301356001600160401b038111156110d157600080fd5b6110dd85828601610e3e565b9150509250929050565b600081518084526020840193506020830160005b828110156111195781518652602095860195909101906001016110fb565b5093949350505050565b602081526000610cb160208301846110e7565b6000806000806080858703121561114c57600080fd5b61115585610c38565b9350602085013592506040850135915060608501356001600160401b03811115610f5557600080fd5b6000806040838503121561119157600080fd5b61119a83610c38565b9150602083013580151581146111af57600080fd5b809150509250929050565b600080604083850312156111cd57600080fd5b6111d683610c38565b91506111e460208401610c38565b90509250929050565b600080600080600060a0868803121561120557600080fd5b61120e86610c38565b945061121c60208701610c38565b9350604086013592506060860135915060808601356001600160401b0381111561100757600080fd5b600181811c9082168061125957607f821691505b60208210810361127957634e487b7160e01b600052602260045260246000fd5b50919050565b634e487b7160e01b600052603260045260246000fd5b601f8211156112dc57806000526020600020601f840160051c810160208510156112bc5750805b601f840160051c820191505b8181101561063c57600081556001016112c8565b505050565b81516001600160401b038111156112fa576112fa610cb8565b61130e816113088454611245565b84611295565b6020601f821160018114611342576000831561132a5750848201515b600019600385901b1c1916600184901b17845561063c565b600084815260208120601f198516915b828110156113725787850151825560209485019460019092019101611352565b50848210156113905786840151600019600387901b60f8161c191681555b50505050600190811b01905550565b8082018082111561021557634e487b7160e01b600052601160045260246000fd5b6040815260006113d360408301856110e7565b82810360208401526113e581856110e7565b95945050505050565b6001600160a01b03868116825285166020820152604081018490526060810183905260a06080820181905260009061142890830184610dc2565b979650505050505050565b60006020828403121561144557600080fd5b8151610cb181610c7e565b6001600160a01b0386811682528516602082015260a06040820181905260009061147c908301866110e7565b828103606084015261148e81866110e7565b905082810360808401526114a28185610dc2565b9897505050505050505056fea2646970667358221220a3e9186af92bb1ae4579fc57480e0ce0a684e8ce46b39dc49921570de4ede3de64736f6c634300081a0033a2646970667358221220753cb666e23cd21d9e80fac707e962725390502838108ac4aecce88673e1911364736f6c634300081a0033",
  "linkReferences": {},
  "deployedLinkReferences": {}
}